{
  "_format": "hh-sol-artifact-1",
  "contractName": "FlashLoanArbitrage",
  "sourceName": "contracts/FlashLoanArbitrage.sol",
  "abi": [
    {
      "inputs": [
        {
          "internalType": "address",
          "name": "_poolAddressesProvider",
          "type": "address"
        },
        {
          "internalType": "address",
          "name": "_wethAddress",
          "type": "address"
        },
        {
          "internalType": "address",
          "name": "_uniswapV3RouterAddress",
          "type": "address"
        },
        {
          "internalType": "address",
          "name": "_sushiSwapRouterAddress",
          "type": "address"
        }
      ],
      "stateMutability": "nonpayable",
      "type": "constructor"
    },
    {
      "anonymous": false,
      "inputs": [
        {
          "indexed": true,
          "internalType": "address",
          "name": "initiator",
          "type": "address"
        },
        {
          "indexed": false,
          "internalType": "uint256",
          "name": "loanAmount",
          "type": "uint256"
        },
        {
          "indexed": false,
          "internalType": "int256",
          "name": "netProfit",
          "type": "int256"
        }
      ],
      "name": "TradeExecuted",
      "type": "event"
    },
    {
      "inputs": [
        {
          "internalType": "address",
          "name": "asset",
          "type": "address"
        },
        {
          "internalType": "uint256",
          "name": "amount",
          "type": "uint256"
        },
        {
          "internalType": "uint256",
          "name": "premium",
          "type": "uint256"
        },
        {
          "internalType": "address",
          "name": "initiator",
          "type": "address"
        },
        {
          "internalType": "bytes",
          "name": "paramsFromFlashLoan",
          "type": "bytes"
        }
      ],
      "name": "executeOperation",
      "outputs": [
        {
          "internalType": "bool",
          "name": "",
          "type": "bool"
        }
      ],
      "stateMutability": "nonpayable",
      "type": "function"
    },
    {
      "inputs": [],
      "name": "i_pool",
      "outputs": [
        {
          "internalType": "contract IPool",
          "name": "",
          "type": "address"
        }
      ],
      "stateMutability": "view",
      "type": "function"
    },
    {
      "inputs": [],
      "name": "i_poolAddressesProvider",
      "outputs": [
        {
          "internalType": "address",
          "name": "",
          "type": "address"
        }
      ],
      "stateMutability": "view",
      "type": "function"
    },
    {
      "inputs": [],
      "name": "i_sushiSwapRouter",
      "outputs": [
        {
          "internalType": "contract IUniswapV2Router02",
          "name": "",
          "type": "address"
        }
      ],
      "stateMutability": "view",
      "type": "function"
    },
    {
      "inputs": [],
      "name": "i_uniswapV3Router",
      "outputs": [
        {
          "internalType": "contract ISwapRouter",
          "name": "",
          "type": "address"
        }
      ],
      "stateMutability": "view",
      "type": "function"
    },
    {
      "inputs": [],
      "name": "i_weth",
      "outputs": [
        {
          "internalType": "address",
          "name": "",
          "type": "address"
        }
      ],
      "stateMutability": "view",
      "type": "function"
    },
    {
      "inputs": [],
      "name": "isTrainingMode",
      "outputs": [
        {
          "internalType": "bool",
          "name": "",
          "type": "bool"
        }
      ],
      "stateMutability": "view",
      "type": "function"
    },
    {
      "inputs": [],
      "name": "owner",
      "outputs": [
        {
          "internalType": "address",
          "name": "",
          "type": "address"
        }
      ],
      "stateMutability": "view",
      "type": "function"
    },
    {
      "inputs": [
        {
          "internalType": "address",
          "name": "_loanToken",
          "type": "address"
        },
        {
          "internalType": "uint256",
          "name": "_loanAmount",
          "type": "uint256"
        },
        {
          "internalType": "uint8",
          "name": "_dexSelector1",
          "type": "uint8"
        },
        {
          "internalType": "bytes",
          "name": "_dexParams1",
          "type": "bytes"
        },
        {
          "internalType": "uint8",
          "name": "_dexSelector2",
          "type": "uint8"
        },
        {
          "internalType": "bytes",
          "name": "_dexParams2",
          "type": "bytes"
        },
        {
          "internalType": "address",
          "name": "_intermediateToken",
          "type": "address"
        }
      ],
      "name": "requestFlashLoan",
      "outputs": [],
      "stateMutability": "nonpayable",
      "type": "function"
    },
    {
      "inputs": [
        {
          "internalType": "bool",
          "name": "_isTraining",
          "type": "bool"
        }
      ],
      "name": "setTrainingMode",
      "outputs": [],
      "stateMutability": "nonpayable",
      "type": "function"
    },
    {
      "inputs": [
        {
          "internalType": "address",
          "name": "_tokenAddress",
          "type": "address"
        }
      ],
      "name": "withdraw",
      "outputs": [],
      "stateMutability": "nonpayable",
      "type": "function"
    },
    {
      "inputs": [],
      "name": "withdrawETH",
      "outputs": [],
      "stateMutability": "nonpayable",
      "type": "function"
    }
  ],
  "bytecode": "0x61012080604052346200019457608081620017ca803803809162000024828562000199565b83398101031262000194576200003a81620001d3565b906200004960208201620001d3565b916200006660606200005e60408501620001d3565b9301620001d3565b6001600081905580546001600160a81b0319163317600160a01b17905560a082905260405163026b1d5f60e01b81529390926001600160a01b03929091906020908690600490829087165afa94851562000188576000956200013f575b50828094951660805260c0521660e052610100911681526040516115e19182620001e983396080518281816103c0015281816107470152610a4c015260a0518261023c015260c0518281816107030152610c26015260e05182818161028001528181611156015261127f01525181818161078b01526113250152f35b946020863d82116200017f575b816200015b6020938362000199565b810103126200017c57508262000173819596620001d3565b959450620000c3565b80fd5b3d91506200014c565b6040513d6000823e3d90fd5b600080fd5b601f909101601f19168101906001600160401b03821190821017620001bd57604052565b634e487b7160e01b600052604160045260246000fd5b51906001600160a01b0382168203620001945756fe608060408181526004908136101561001657600080fd5b600092833560e01c9081630138c99b14610820575080631b11d0ff146107af578063227ba7ed1461076b57806340f11633146107275780634dbe7e92146106e357806351cff8d91461051a578063843decc8146102cc5780638da5cb5b146102a4578063911d93a814610260578063a5fcb16a1461021c578063d4fd6d2f1461019e5763e086e5ec146100a857600080fd5b3461019a578260031936011261019a576001600160a01b03600154166100cf81331461089b565b47908115610157578480809381935af13d15610152573d6100ef81610957565b906100fc84519283610907565b81528460203d92013e5b1561010f578280f35b906020606492519162461bcd60e51b8352820152601360248201527f455448207472616e73666572206661696c6564000000000000000000000000006044820152fd5b610106565b606484602085519162461bcd60e51b8352820152601260248201527f4e6f2045544820746f20776974686472617700000000000000000000000000006044820152fd5b8280fd5b5050346102185760203660031901126102185735801515809103610218577fffffffffffffffffffffff00ffffffffffffffffffffffffffffffffffffffff74ff00000000000000000000000000000000000000006001549261020b6001600160a01b038516331461089b565b60a01b1691161760015580f35b5080fd5b838234610218578160031936011261021857602090516001600160a01b037f0000000000000000000000000000000000000000000000000000000000000000168152f35b838234610218578160031936011261021857602090516001600160a01b037f0000000000000000000000000000000000000000000000000000000000000000168152f35b8382346102185781600319360112610218576020906001600160a01b03600154169051908152f35b503461019a5760e036600319011261019a576102e6610844565b9160443560ff81168091036105165767ffffffffffffffff9060643582811161051257610316903690850161085f565b916084359060ff821680920361050e5760a43585811161050a5761033d903690880161085f565b93909260c4948535926001600160a01b03978d89861680960361050757546002146104c4576103bd938c938f60a09897946103ab946002610392935587519a8b9860209b8c8b015289015260c08801916108e6565b916060860152601f1998898684030160808701526108e6565b9060a083015203848101845283610907565b847f00000000000000000000000000000000000000000000000000000000000000001694853b156104c0579893918a95939189519a8b967f42b0b77c000000000000000000000000000000000000000000000000000000008852308b890152166024870152602435604487015260a060648701528151918260a4880152875b8381106104a55750505091848692601f858585859886010152856084850152011681010301925af1801561049b57610477575b846001815580f35b83116104885750523880808061046f565b836041602492634e487b7160e01b835252fd5b83513d87823e3d90fd5b8181018301519781018601979097528c97508b96820161043c565b8a80fd5b60648b60208e519162461bcd60e51b8352820152601f60248201527f5265656e7472616e637947756172643a207265656e7472616e742063616c6c006044820152fd5b80fd5b8980fd5b8880fd5b8680fd5b8480fd5b503461019a57602090816003193601126106df57610536610844565b6001600160a01b0380600154169161054f83331461089b565b168251917f70a0823100000000000000000000000000000000000000000000000000000000835230868401528483602481855afa9283156106d55787936106a6575b508215610664579184916105d09388865180968195829463a9059cbb60e01b84528c8401602090939291936001600160a01b0360408201951681520152565b03925af190811561065a57859161062d575b50156105ec578380f35b60649350519162461bcd60e51b8352820152601560248201527f546f6b656e207472616e73666572206661696c656400000000000000000000006044820152fd5b61064d9150833d8511610653575b6106458183610907565b81019061093f565b386105e2565b503d61063b565b82513d87823e3d90fd5b6064868686519162461bcd60e51b8352820152601560248201527f4e6f20746f6b656e7320746f20776974686472617700000000000000000000006044820152fd5b9092508481813d83116106ce575b6106be8183610907565b8101031261051257519138610591565b503d6106b4565b84513d89823e3d90fd5b8380fd5b838234610218578160031936011261021857602090516001600160a01b037f0000000000000000000000000000000000000000000000000000000000000000168152f35b838234610218578160031936011261021857602090516001600160a01b037f0000000000000000000000000000000000000000000000000000000000000000168152f35b838234610218578160031936011261021857602090516001600160a01b037f0000000000000000000000000000000000000000000000000000000000000000168152f35b50903461019a5760a036600319011261019a576107ca610844565b90606435936001600160a01b0385168503610507576084359067ffffffffffffffff8211610507575091610807602095926108179436910161085f565b9290916044359060243590610a3d565b90519015158152f35b84903461021857816003193601126102185760209060ff60015460a01c1615158152f35b600435906001600160a01b038216820361085a57565b600080fd5b9181601f8401121561085a5782359167ffffffffffffffff831161085a576020838186019501011161085a57565b359060ff8216820361085a57565b156108a257565b606460405162461bcd60e51b815260206004820152600960248201527f4e6f74206f776e657200000000000000000000000000000000000000000000006044820152fd5b908060209392818452848401376000828201840152601f01601f1916010190565b90601f8019910116810190811067ffffffffffffffff82111761092957604052565b634e487b7160e01b600052604160045260246000fd5b9081602091031261085a5751801515810361085a5790565b67ffffffffffffffff811161092957601f01601f191660200190565b81601f8201121561085a5780359061098a82610957565b926109986040519485610907565b8284526020838301011161085a57816000926020809301838601378301015290565b51906001600160a01b038216820361085a57565b919082604091031261085a5760206109e5836109ba565b92015190565b9081606091031261085a576109ff816109ba565b91602082015162ffffff8116810361085a5760409092015190565b91908203918211610a2757565b634e487b7160e01b600052601160045260246000fd5b9091926001600160a01b0391827f000000000000000000000000000000000000000000000000000000000000000016948533036110fa57840190818511610a275760019760ff895460a01c1661104e5787019460a08887031261085a57610aa38861088d565b60209867ffffffffffffffff90808b013582811161085a5789610ac7918301610973565b604099610ad58b840161088d565b93606084013590811161085a57608091610af0918501610973565b9201359389851680950361085a5784918d8f60ff8d94168015600014610f8d5750509081610b2492825183010191016109eb565b93919290921603610f4a579085610b3c92868961113e565b915b8215610f07578c9060ff1680610e4b575050808b80610b62935183010191016109eb565b93909189808816911603610e08579085610b7d94939261113e565b905b8115610dc55783821091849088908890600086610d4f57507f4afa6bf17a7389e0fa12112631628c1c63c07560ca2067c34a8a11fb26fd985293610bc291610a1a565b975b8251948552888d8601521692a2610ce657845163095ea7b360e01b81526001600160a01b03969096166004870152602486019190915282169385816044816000895af18015610cdb57610cbe575b5060008113610c24575b505050505090565b7f000000000000000000000000000000000000000000000000000000000000000082168414610c1c578554835163a9059cbb60e01b815292166001600160a01b0316600483015260248201529183908390816000816044810103925af1908115610cb45750610c96575b808080610c1c565b81610cac92903d10610653576106458183610907565b503880610c8e565b513d6000823e3d90fd5b610cd490863d8811610653576106458183610907565b5038610c12565b84513d6000823e3d90fd5b60848786519062461bcd60e51b82526004820152603c60248201527f417262697472616765206661696c65643a20496e73756666696369656e74206660448201527f756e647320746f207265706179206c6f616e202b207072656d69756d000000006064820152fd5b93909150610d5d9250610a1a565b907f80000000000000000000000000000000000000000000000000000000000000008214610db157877f4afa6bf17a7389e0fa12112631628c1c63c07560ca2067c34a8a11fb26fd9852928a920397610bc4565b80634e487b7160e01b602492526011600452fd5b60648988519062461bcd60e51b82526004820152601a60248201527f53776170323a20496e73756666696369656e74206f75747075740000000000006044820152fd5b60648c8b519062461bcd60e51b82526004820152601c60248201527f53776170323a20746f6b656e4f7574556e6932206d69736d61746368000000006044820152fd5b03610ec457808b80610e62935183010191016109ce565b929088808716911603610e81579084610e7b939261130d565b90610b7f565b60648b8a519062461bcd60e51b82526004820152601e60248201527f53776170323a20746f6b656e4f7574537573686932206d69736d6174636800006044820152fd5b60648b8a519062461bcd60e51b82526004820152601f60248201527f496e76616c6964204445582073656c6563746f7220666f7220537761702032006044820152fd5b60648c8b519062461bcd60e51b82526004820152601a60248201527f53776170313a20496e73756666696369656e74206f75747075740000000000006044820152fd5b60648d8c519062461bcd60e51b82526004820152601c60248201527f53776170313a20746f6b656e4f7574556e6931206d69736d61746368000000006044820152fd5b9294509250501460001461100b5783610faf828e808d955183010191016109ce565b921603610fc857610fc29085858861130d565b91610b3e565b60648c8b519062461bcd60e51b82526004820152601e60248201527f53776170313a20746f6b656e4f7574537573686931206d69736d6174636800006044820152fd5b60648c8b519062461bcd60e51b82526004820152601f60248201527f496e76616c6964204445582073656c6563746f7220666f7220537761702031006044820152fd5b50926110c09650600091947f4afa6bf17a7389e0fa12112631628c1c63c07560ca2067c34a8a11fb26fd9852604083602099968251948552868b8601521692a260405180978196829563095ea7b360e01b845260048401602090939291936001600160a01b0360408201951681520152565b0393165af180156110ee576110d3575090565b6110ea9060203d8111610653576106458183610907565b5090565b6040513d6000823e3d90fd5b606460405162461bcd60e51b815260206004820152601860248201527f43616c6c6572206d757374206265204161766520506f6f6c00000000000000006044820152fd5b6040805163095ea7b360e01b81526001600160a01b037f000000000000000000000000000000000000000000000000000000000000000081166004830152602482018790529196939592909116939291906020816044816000895af18015611302576112e3575b50855161010081019481861067ffffffffffffffff871117610929577f414bf389000000000000000000000000000000000000000000000000000000009662ffffff89966001600160a01b039893899489528552836020860193168352818886019116815283606086019330855281608088019742895260a08101998a5260c081019a8b5260e081019b60008d52519d8e52511660048d0152511660248b015251166044890152511660648701525160848601525160a48501525160c4840152511660e48201526020816101048160006001600160a01b037f0000000000000000000000000000000000000000000000000000000000000000165af1918215610cb457506000916112b4575090565b90506020813d6020116112db575b816112cf60209383610907565b8101031261085a575190565b3d91506112c2565b6112fb9060203d602011610653576106458183610907565b50386111a5565b87513d6000823e3d90fd5b6040805163095ea7b360e01b81526001600160a01b037f000000000000000000000000000000000000000000000000000000000000000081166004808401829052602484018890526020989497909660009693959492938616929091908a816044818b885af180156115a157611584575b50885167ffffffffffffffff96906060810188811182821017611571578b52600281528b8101948b36873781511561155e57855280519360019485101561155e5792828a979592989694168c8901528b519788967f38ed173900000000000000000000000000000000000000000000000000000000885260a48801928d890152602488015260a06044880152518091528c60c48701949388915b838310611540575050505050508383809230606483015242608483015203925af1948515611537578395611493575b505083516000198101939150831161148057835183101561146d57505060051b01015190565b906032602492634e487b7160e01b835252fd5b906011602492634e487b7160e01b835252fd5b90919294503d8086843e6114a78184610907565b820191868184031261152057805190848211610512570182601f82011215611520578051938411611524578360051b9151936114e588840186610907565b845286808501928201019283116115205786809101915b838310611510575050505091388080611447565b82518152918101918791016114fc565b8580fd5b602486604187634e487b7160e01b835252fd5b513d84823e3d90fd5b8551821687528c99508a98509586019590940193908301908e611418565b60248a60328d634e487b7160e01b835252fd5b60248a60418d634e487b7160e01b835252fd5b61159a908b3d8d11610653576106458183610907565b503861137e565b8a513d8a823e3d90fdfea26469706673582212205eca5f31969efd01833ca2416008d4e66801fe34a47b436e6b76b97e2665449764736f6c63430008130033",
  "linkReferences": {},
  "deployedLinkReferences": {}
}