{
  "_format": "hh-sol-artifact-1",
  "contractName": "MockAavePool",
  "sourceName": "contracts/test/MockAavePool.sol",
  "abi": [
    {
      "inputs": [],
      "stateMutability": "nonpayable",
      "type": "constructor"
    },
    {
      "anonymous": false,
      "inputs": [
        {
          "indexed": false,
          "internalType": "address",
          "name": "receiverAddress",
          "type": "address"
        },
        {
          "indexed": false,
          "internalType": "address",
          "name": "asset",
          "type": "address"
        },
        {
          "indexed": false,
          "internalType": "uint256",
          "name": "amount",
          "type": "uint256"
        },
        {
          "indexed": false,
          "internalType": "bytes",
          "name": "params",
          "type": "bytes"
        },
        {
          "indexed": false,
          "internalType": "uint16",
          "name": "referralCode",
          "type": "uint16"
        }
      ],
      "name": "FlashLoanSimpleCalled",
      "type": "event"
    },
    {
      "anonymous": false,
      "inputs": [
        {
          "indexed": true,
          "internalType": "address",
          "name": "asset",
          "type": "address"
        },
        {
          "indexed": false,
          "internalType": "uint256",
          "name": "amount",
          "type": "uint256"
        },
        {
          "indexed": false,
          "internalType": "uint256",
          "name": "premium",
          "type": "uint256"
        }
      ],
      "name": "Repayment",
      "type": "event"
    },
    {
      "inputs": [],
      "name": "PREMIUM_BASIS_POINTS",
      "outputs": [
        {
          "internalType": "uint256",
          "name": "",
          "type": "uint256"
        }
      ],
      "stateMutability": "view",
      "type": "function"
    },
    {
      "inputs": [
        {
          "internalType": "address",
          "name": "",
          "type": "address"
        }
      ],
      "name": "assetBalances",
      "outputs": [
        {
          "internalType": "uint256",
          "name": "",
          "type": "uint256"
        }
      ],
      "stateMutability": "view",
      "type": "function"
    },
    {
      "inputs": [],
      "name": "currentFlashLoanPremium",
      "outputs": [
        {
          "internalType": "uint256",
          "name": "",
          "type": "uint256"
        }
      ],
      "stateMutability": "view",
      "type": "function"
    },
    {
      "inputs": [
        {
          "internalType": "address",
          "name": "receiverAddress",
          "type": "address"
        },
        {
          "internalType": "address",
          "name": "asset",
          "type": "address"
        },
        {
          "internalType": "uint256",
          "name": "amount",
          "type": "uint256"
        },
        {
          "internalType": "bytes",
          "name": "params",
          "type": "bytes"
        },
        {
          "internalType": "uint16",
          "name": "referralCode",
          "type": "uint16"
        }
      ],
      "name": "flashLoanSimple",
      "outputs": [],
      "stateMutability": "nonpayable",
      "type": "function"
    },
    {
      "inputs": [
        {
          "internalType": "address",
          "name": "_asset",
          "type": "address"
        },
        {
          "internalType": "uint256",
          "name": "_amount",
          "type": "uint256"
        }
      ],
      "name": "fundPool",
      "outputs": [],
      "stateMutability": "nonpayable",
      "type": "function"
    },
    {
      "inputs": [],
      "name": "owner",
      "outputs": [
        {
          "internalType": "address",
          "name": "",
          "type": "address"
        }
      ],
      "stateMutability": "view",
      "type": "function"
    },
    {
      "inputs": [
        {
          "internalType": "uint256",
          "name": "_premium",
          "type": "uint256"
        }
      ],
      "name": "setFlashLoanPremium",
      "outputs": [],
      "stateMutability": "nonpayable",
      "type": "function"
    }
  ],
  "bytecode": "0x6080806040523461002d576005600155600080546001600160a01b0319163317905561052390816100338239f35b600080fdfe608060408181526004918236101561001657600080fd5b600092833560e01c9182631da9e7bb146103bb575081632bfd5146146102f157816342b0b77c1461010a575080634f6c54b2146100ec5780636d998f17146100d0578063867c12471461009a57638da5cb5b1461007257600080fd5b346100965781600319360112610096576001600160a01b0360209254169051908152f35b5080fd5b503461009657602036600319011261009657806020926001600160a01b036100c0610442565b1681526002845220549051908152f35b5034610096578160031936011261009657602090516127108152f35b50346100965781600319360112610096576020906001549051908152f35b9050346102d35760a03660031901126102d357610125610442565b91602480356001600160a01b03908181168091036102ed576044359460643567ffffffffffffffff978882116102e957366023830112156102e957818301359889116102d7578987519260209a6101858c601f19601f840116018661045d565b808552368982840101116102d35780898d930183870137840101526084359461ffff86168096036102cf577fd9ff9d2d206cf36c71b0d1062e183f788dfaa22c3fafdc4d2a1303bd83f1d7a99188519182911696878252868c8301528a8a83015260a060608301526101fa60a08301866104ad565b9060808301520390a16001548088029088820414881517156102bd57916102738a926127108b989796958a519b8c998a9889977f1b11d0ff00000000000000000000000000000000000000000000000000000000895288015286015204604484015233606484015260a0608484015260a48301906104ad565b03925af19081156102b45750610287578280f35b816102a692903d106102ad575b61029e818361045d565b810190610495565b5038808280f35b503d610294565b513d85823e3d90fd5b858a601185634e487b7160e01b835252fd5b8a80fd5b8280fd5b858a604185634e487b7160e01b835252fd5b8980fd5b8680fd5b9050346102d357816003193601126102d35761030b610442565b916001600160a01b03602435931681517f23b872dd000000000000000000000000000000000000000000000000000000008152338482015230602482015284604482015260208160648189865af180156103b157610393575b5084526002602052832090815492830180931161038057505580f35b836011602492634e487b7160e01b835252fd5b6103aa9060203d81116102ad5761029e818361045d565b5038610364565b83513d88823e3d90fd5b849250346102d35760203660031901126102d3576001600160a01b0383541633036103e857503560015580f35b60206064927f08c379a0000000000000000000000000000000000000000000000000000000008352820152600960248201527f4e6f74206f776e657200000000000000000000000000000000000000000000006044820152fd5b600435906001600160a01b038216820361045857565b600080fd5b90601f8019910116810190811067ffffffffffffffff82111761047f57604052565b634e487b7160e01b600052604160045260246000fd5b90816020910312610458575180151581036104585790565b919082519283825260005b8481106104d9575050826000602080949584010152601f8019910116010190565b6020818301810151848301820152016104b856fea26469706673582212205ecb0cf04b739a74d72068ad38735c23cdd0bcbdcb75842426dd24a317f56ef664736f6c63430008130033",
  "linkReferences": {},
  "deployedLinkReferences": {}
}