{"contracts/test/MockSushiSwapRouter.sol":{"MockSushiSwapRouter":{"abi":[{"inputs":[{"internalType":"address","name":"_wethParam","type":"address"}],"stateMutability":"nonpayable","type":"constructor"},{"anonymous":false,"inputs":[{"indexed":false,"internalType":"address","name":"tokenIn","type":"address"},{"indexed":false,"internalType":"address","name":"tokenOut","type":"address"},{"indexed":false,"internalType":"uint256","name":"amountIn","type":"uint256"},{"indexed":false,"internalType":"uint256","name":"amountOutMinimum","type":"uint256"},{"indexed":false,"internalType":"address","name":"recipient","type":"address"},{"indexed":false,"internalType":"uint256","name":"amountOutActual","type":"uint256"}],"name":"SwappedV2","type":"event"},{"inputs":[],"name":"WETH","outputs":[{"internalType":"address","name":"","type":"address"}],"stateMutability":"view","type":"function"},{"inputs":[{"internalType":"bytes32","name":"","type":"bytes32"}],"name":"expectedAmountIn","outputs":[{"internalType":"uint256","name":"","type":"uint256"}],"stateMutability":"view","type":"function"},{"inputs":[{"internalType":"bytes32","name":"","type":"bytes32"}],"name":"expectedOutputAmounts","outputs":[{"internalType":"uint256","name":"","type":"uint256"}],"stateMutability":"view","type":"function"},{"inputs":[],"name":"i_wethAddress","outputs":[{"internalType":"address","name":"","type":"address"}],"stateMutability":"view","type":"function"},{"inputs":[{"internalType":"address","name":"_tokenIn","type":"address"},{"internalType":"address","name":"_tokenOut","type":"address"},{"internalType":"uint256","name":"_amountIn","type":"uint256"}],"name":"setExpectedInput","outputs":[],"stateMutability":"nonpayable","type":"function"},{"inputs":[{"internalType":"address","name":"_tokenIn","type":"address"},{"internalType":"address","name":"_tokenOut","type":"address"},{"internalType":"uint256","name":"_amountIn","type":"uint256"},{"internalType":"uint256","name":"_expectedAmountOut","type":"uint256"}],"name":"setExpectedOutput","outputs":[],"stateMutability":"nonpayable","type":"function"},{"inputs":[{"internalType":"uint256","name":"amountIn","type":"uint256"},{"internalType":"uint256","name":"amountOutMinimum","type":"uint256"},{"internalType":"address[]","name":"path","type":"address[]"},{"internalType":"address","name":"to","type":"address"},{"internalType":"uint256","name":"deadline","type":"uint256"}],"name":"swapExactTokensForTokens","outputs":[{"internalType":"uint256[]","name":"amounts","type":"uint256[]"}],"stateMutability":"nonpayable","type":"function"},{"stateMutability":"payable","type":"receive"}],"evm":{"bytecode":{"linkReferences":{},"object":"60a03461006a57601f61046938819003918201601f19168301916001600160401b0383118484101761006f5780849260209460405283398101031261006a57516001600160a01b038116810361006a576080526040516103e390816100868239608051816103570152f35b600080fd5b634e487b7160e01b600052604160045260246000fdfe6080604081815260049081361015610022575b505050361561002057600080fd5b005b600091823560e01c938462561062146102475750836338ed17391461014557836379e819da146100d65783639fde4a35146100b0578363a898c1ea14610087575050508063ad5c4648146100825763fe07ea601461008257388080610012565b61032a565b346100ac5760203660031901126100ac57602092829135815280845220549051908152f35b8280fd5b346100ac5760203660031901126100ac5760209282913581526001845220549051908152f35b5034610141576060366003190112610141576100f06102df565b6100f8610307565b9082519060208201926bffffffffffffffffffffffff19809260601b16845260601b1660348201526028815261012d8161037b565b519020825260016020526044359082205580f35b5080fd5b91346102445760a03660031901126102445782359067ffffffffffffffff6044358181116100ac57366023820112156100ac57808601359182116100ac57602490369260051b0101116102445760643573ffffffffffffffffffffffffffffffffffffffff811603610244578251906101bd8261037b565b6002825260209081830193853686378351156102315780855283519660019788101561021e5750858401528451828152925183830181905283860194879390925b82811061020b5785870386f35b83518752958101959281019284016101fe565b826032602492634e487b7160e01b835252fd5b602482603289634e487b7160e01b835252fd5b80fd5b346102db5760803660031901126102db576102606102df565b91610269610307565b9260208301936bffffffffffffffffffffffff19809260601b16855260601b166034830152604435604883015260488252608082019082821067ffffffffffffffff8311176102c8575083525190208252816020526064359082205580f35b856041602492634e487b7160e01b835252fd5b8380fd5b6004359073ffffffffffffffffffffffffffffffffffffffff8216820361030257565b600080fd5b6024359073ffffffffffffffffffffffffffffffffffffffff8216820361030257565b3461030257600036600319011261030257602060405173ffffffffffffffffffffffffffffffffffffffff7f0000000000000000000000000000000000000000000000000000000000000000168152f35b6060810190811067ffffffffffffffff82111761039757604052565b634e487b7160e01b600052604160045260246000fdfea264697066735822122029cd42dcaa1349663e1e6e1bc4dd2b8b152365beab789c725e8b064d2f670e8f64736f6c63430008130033","opcodes":"PUSH1 0xA0 CALLVALUE PUSH2 0x6A JUMPI PUSH1 0x1F PUSH2 0x469 CODESIZE DUP2 SWAP1 SUB SWAP2 DUP3 ADD PUSH1 0x1F NOT AND DUP4 ADD SWAP2 PUSH1 0x1 PUSH1 0x1 PUSH1 0x40 SHL SUB DUP4 GT DUP5 DUP5 LT OR PUSH2 0x6F JUMPI DUP1 DUP5 SWAP3 PUSH1 0x20 SWAP5 PUSH1 0x40 MSTORE DUP4 CODECOPY DUP2 ADD SUB SLT PUSH2 0x6A JUMPI MLOAD PUSH1 0x1 PUSH1 0x1 PUSH1 0xA0 SHL SUB DUP2 AND DUP2 SUB PUSH2 0x6A JUMPI PUSH1 0x80 MSTORE PUSH1 0x40 MLOAD PUSH2 0x3E3 SWAP1 DUP2 PUSH2 0x86 DUP3 CODECOPY PUSH1 0x80 MLOAD DUP2 PUSH2 0x357 ADD MSTORE RETURN JUMPDEST PUSH1 0x0 DUP1 REVERT JUMPDEST PUSH4 0x4E487B71 PUSH1 0xE0 SHL PUSH1 0x0 MSTORE PUSH1 0x41 PUSH1 0x4 MSTORE PUSH1 0x24 PUSH1 0x0 REVERT INVALID PUSH1 0x80 PUSH1 0x40 DUP2 DUP2 MSTORE PUSH1 0x4 SWAP1 DUP2 CALLDATASIZE LT ISZERO PUSH2 0x22 JUMPI JUMPDEST POP POP POP CALLDATASIZE ISZERO PUSH2 0x20 JUMPI PUSH1 0x0 DUP1 REVERT JUMPDEST STOP JUMPDEST PUSH1 0x0 SWAP2 DUP3 CALLDATALOAD PUSH1 0xE0 SHR SWAP4 DUP5 PUSH3 0x561062 EQ PUSH2 0x247 JUMPI POP DUP4 PUSH4 0x38ED1739 EQ PUSH2 0x145 JUMPI DUP4 PUSH4 0x79E819DA EQ PUSH2 0xD6 JUMPI DUP4 PUSH4 0x9FDE4A35 EQ PUSH2 0xB0 JUMPI DUP4 PUSH4 0xA898C1EA EQ PUSH2 0x87 JUMPI POP POP POP DUP1 PUSH4 0xAD5C4648 EQ PUSH2 0x82 JUMPI PUSH4 0xFE07EA60 EQ PUSH2 0x82 JUMPI CODESIZE DUP1 DUP1 PUSH2 0x12 JUMP JUMPDEST PUSH2 0x32A JUMP JUMPDEST CALLVALUE PUSH2 0xAC JUMPI PUSH1 0x20 CALLDATASIZE PUSH1 0x3 NOT ADD SLT PUSH2 0xAC JUMPI PUSH1 0x20 SWAP3 DUP3 SWAP2 CALLDATALOAD DUP2 MSTORE DUP1 DUP5 MSTORE KECCAK256 SLOAD SWAP1 MLOAD SWAP1 DUP2 MSTORE RETURN JUMPDEST DUP3 DUP1 REVERT JUMPDEST CALLVALUE PUSH2 0xAC JUMPI PUSH1 0x20 CALLDATASIZE PUSH1 0x3 NOT ADD SLT PUSH2 0xAC JUMPI PUSH1 0x20 SWAP3 DUP3 SWAP2 CALLDATALOAD DUP2 MSTORE PUSH1 0x1 DUP5 MSTORE KECCAK256 SLOAD SWAP1 MLOAD SWAP1 DUP2 MSTORE RETURN JUMPDEST POP CALLVALUE PUSH2 0x141 JUMPI PUSH1 0x60 CALLDATASIZE PUSH1 0x3 NOT ADD SLT PUSH2 0x141 JUMPI PUSH2 0xF0 PUSH2 0x2DF JUMP JUMPDEST PUSH2 0xF8 PUSH2 0x307 JUMP JUMPDEST SWAP1 DUP3 MLOAD SWAP1 PUSH1 0x20 DUP3 ADD SWAP3 PUSH12 0xFFFFFFFFFFFFFFFFFFFFFFFF NOT DUP1 SWAP3 PUSH1 0x60 SHL AND DUP5 MSTORE PUSH1 0x60 SHL AND PUSH1 0x34 DUP3 ADD MSTORE PUSH1 0x28 DUP2 MSTORE PUSH2 0x12D DUP2 PUSH2 0x37B JUMP JUMPDEST MLOAD SWAP1 KECCAK256 DUP3 MSTORE PUSH1 0x1 PUSH1 0x20 MSTORE PUSH1 0x44 CALLDATALOAD SWAP1 DUP3 KECCAK256 SSTORE DUP1 RETURN JUMPDEST POP DUP1 REVERT JUMPDEST SWAP2 CALLVALUE PUSH2 0x244 JUMPI PUSH1 0xA0 CALLDATASIZE PUSH1 0x3 NOT ADD SLT PUSH2 0x244 JUMPI DUP3 CALLDATALOAD SWAP1 PUSH8 0xFFFFFFFFFFFFFFFF PUSH1 0x44 CALLDATALOAD DUP2 DUP2 GT PUSH2 0xAC JUMPI CALLDATASIZE PUSH1 0x23 DUP3 ADD SLT ISZERO PUSH2 0xAC JUMPI DUP1 DUP7 ADD CALLDATALOAD SWAP2 DUP3 GT PUSH2 0xAC JUMPI PUSH1 0x24 SWAP1 CALLDATASIZE SWAP3 PUSH1 0x5 SHL ADD ADD GT PUSH2 0x244 JUMPI PUSH1 0x64 CALLDATALOAD PUSH20 0xFFFFFFFFFFFFFFFFFFFFFFFFFFFFFFFFFFFFFFFF DUP2 AND SUB PUSH2 0x244 JUMPI DUP3 MLOAD SWAP1 PUSH2 0x1BD DUP3 PUSH2 0x37B JUMP JUMPDEST PUSH1 0x2 DUP3 MSTORE PUSH1 0x20 SWAP1 DUP2 DUP4 ADD SWAP4 DUP6 CALLDATASIZE DUP7 CALLDATACOPY DUP4 MLOAD ISZERO PUSH2 0x231 JUMPI DUP1 DUP6 MSTORE DUP4 MLOAD SWAP7 PUSH1 0x1 SWAP8 DUP9 LT ISZERO PUSH2 0x21E JUMPI POP DUP6 DUP5 ADD MSTORE DUP5 MLOAD DUP3 DUP2 MSTORE SWAP3 MLOAD DUP4 DUP4 ADD DUP2 SWAP1 MSTORE DUP4 DUP7 ADD SWAP5 DUP8 SWAP4 SWAP1 SWAP3 JUMPDEST DUP3 DUP2 LT PUSH2 0x20B JUMPI DUP6 DUP8 SUB DUP7 RETURN JUMPDEST DUP4 MLOAD DUP8 MSTORE SWAP6 DUP2 ADD SWAP6 SWAP3 DUP2 ADD SWAP3 DUP5 ADD PUSH2 0x1FE JUMP JUMPDEST DUP3 PUSH1 0x32 PUSH1 0x24 SWAP3 PUSH4 0x4E487B71 PUSH1 0xE0 SHL DUP4 MSTORE MSTORE REVERT JUMPDEST PUSH1 0x24 DUP3 PUSH1 0x32 DUP10 PUSH4 0x4E487B71 PUSH1 0xE0 SHL DUP4 MSTORE MSTORE REVERT JUMPDEST DUP1 REVERT JUMPDEST CALLVALUE PUSH2 0x2DB JUMPI PUSH1 0x80 CALLDATASIZE PUSH1 0x3 NOT ADD SLT PUSH2 0x2DB JUMPI PUSH2 0x260 PUSH2 0x2DF JUMP JUMPDEST SWAP2 PUSH2 0x269 PUSH2 0x307 JUMP JUMPDEST SWAP3 PUSH1 0x20 DUP4 ADD SWAP4 PUSH12 0xFFFFFFFFFFFFFFFFFFFFFFFF NOT DUP1 SWAP3 PUSH1 0x60 SHL AND DUP6 MSTORE PUSH1 0x60 SHL AND PUSH1 0x34 DUP4 ADD MSTORE PUSH1 0x44 CALLDATALOAD PUSH1 0x48 DUP4 ADD MSTORE PUSH1 0x48 DUP3 MSTORE PUSH1 0x80 DUP3 ADD SWAP1 DUP3 DUP3 LT PUSH8 0xFFFFFFFFFFFFFFFF DUP4 GT OR PUSH2 0x2C8 JUMPI POP DUP4 MSTORE MLOAD SWAP1 KECCAK256 DUP3 MSTORE DUP2 PUSH1 0x20 MSTORE PUSH1 0x64 CALLDATALOAD SWAP1 DUP3 KECCAK256 SSTORE DUP1 RETURN JUMPDEST DUP6 PUSH1 0x41 PUSH1 0x24 SWAP3 PUSH4 0x4E487B71 PUSH1 0xE0 SHL DUP4 MSTORE MSTORE REVERT JUMPDEST DUP4 DUP1 REVERT JUMPDEST PUSH1 0x4 CALLDATALOAD SWAP1 PUSH20 0xFFFFFFFFFFFFFFFFFFFFFFFFFFFFFFFFFFFFFFFF DUP3 AND DUP3 SUB PUSH2 0x302 JUMPI JUMP JUMPDEST PUSH1 0x0 DUP1 REVERT JUMPDEST PUSH1 0x24 CALLDATALOAD SWAP1 PUSH20 0xFFFFFFFFFFFFFFFFFFFFFFFFFFFFFFFFFFFFFFFF DUP3 AND DUP3 SUB PUSH2 0x302 JUMPI JUMP JUMPDEST CALLVALUE PUSH2 0x302 JUMPI PUSH1 0x0 CALLDATASIZE PUSH1 0x3 NOT ADD SLT PUSH2 0x302 JUMPI PUSH1 0x20 PUSH1 0x40 MLOAD PUSH20 0xFFFFFFFFFFFFFFFFFFFFFFFFFFFFFFFFFFFFFFFF PUSH32 0x0 AND DUP2 MSTORE RETURN JUMPDEST PUSH1 0x60 DUP2 ADD SWAP1 DUP2 LT PUSH8 0xFFFFFFFFFFFFFFFF DUP3 GT OR PUSH2 0x397 JUMPI PUSH1 0x40 MSTORE JUMP JUMPDEST PUSH4 0x4E487B71 PUSH1 0xE0 SHL PUSH1 0x0 MSTORE PUSH1 0x41 PUSH1 0x4 MSTORE PUSH1 0x24 PUSH1 0x0 REVERT INVALID LOG2 PUSH5 0x6970667358 0x22 SLT KECCAK256 0x29 0xCD TIMESTAMP 0xDC 0xAA SGT 0x49 PUSH7 0x3E1E6E1BC4DD2B DUP12 ISZERO 0x23 PUSH6 0xBEAB789C725E DUP12 MOD 0x4D 0x2F PUSH8 0xE8F64736F6C6343 STOP ADDMOD SGT STOP CALLER "},"methodIdentifiers":{"WETH()":"ad5c4648","expectedAmountIn(bytes32)":"9fde4a35","expectedOutputAmounts(bytes32)":"a898c1ea","i_wethAddress()":"fe07ea60","setExpectedInput(address,address,uint256)":"79e819da","setExpectedOutput(address,address,uint256,uint256)":"00561062","swapExactTokensForTokens(uint256,uint256,address[],address,uint256)":"38ed1739"}}}}}