{"contracts/FlashLoanArbitrage.sol":{"FlashLoanArbitrage":{"abi":[{"inputs":[{"internalType":"address","name":"_poolAddressesProvider","type":"address"},{"internalType":"address","name":"_wethAddress","type":"address"},{"internalType":"address","name":"_uniswapV3RouterAddress","type":"address"},{"internalType":"address","name":"_sushiSwapRouterAddress","type":"address"}],"stateMutability":"nonpayable","type":"constructor"},{"anonymous":false,"inputs":[{"indexed":true,"internalType":"address","name":"initiator","type":"address"},{"indexed":false,"internalType":"uint256","name":"loanAmount","type":"uint256"},{"indexed":false,"internalType":"int256","name":"netProfit","type":"int256"}],"name":"TradeExecuted","type":"event"},{"inputs":[{"internalType":"address","name":"asset","type":"address"},{"internalType":"uint256","name":"amount","type":"uint256"},{"internalType":"uint256","name":"premium","type":"uint256"},{"internalType":"address","name":"initiator","type":"address"},{"internalType":"bytes","name":"paramsFromFlashLoan","type":"bytes"}],"name":"executeOperation","outputs":[{"internalType":"bool","name":"","type":"bool"}],"stateMutability":"nonpayable","type":"function"},{"inputs":[],"name":"i_pool","outputs":[{"internalType":"contract IPool","name":"","type":"address"}],"stateMutability":"view","type":"function"},{"inputs":[],"name":"i_poolAddressesProvider","outputs":[{"internalType":"address","name":"","type":"address"}],"stateMutability":"view","type":"function"},{"inputs":[],"name":"i_sushiSwapRouter","outputs":[{"internalType":"contract IUniswapV2Router02","name":"","type":"address"}],"stateMutability":"view","type":"function"},{"inputs":[],"name":"i_uniswapV3Router","outputs":[{"internalType":"contract ISwapRouter","name":"","type":"address"}],"stateMutability":"view","type":"function"},{"inputs":[],"name":"i_weth","outputs":[{"internalType":"address","name":"","type":"address"}],"stateMutability":"view","type":"function"},{"inputs":[],"name":"isTrainingMode","outputs":[{"internalType":"bool","name":"","type":"bool"}],"stateMutability":"view","type":"function"},{"inputs":[],"name":"owner","outputs":[{"internalType":"address","name":"","type":"address"}],"stateMutability":"view","type":"function"},{"inputs":[{"internalType":"address","name":"_loanToken","type":"address"},{"internalType":"uint256","name":"_loanAmount","type":"uint256"},{"internalType":"uint8","name":"_dexSelector1","type":"uint8"},{"internalType":"bytes","name":"_dexParams1","type":"bytes"},{"internalType":"uint8","name":"_dexSelector2","type":"uint8"},{"internalType":"bytes","name":"_dexParams2","type":"bytes"},{"internalType":"address","name":"_intermediateToken","type":"address"}],"name":"requestFlashLoan","outputs":[],"stateMutability":"nonpayable","type":"function"},{"inputs":[{"internalType":"bool","name":"_isTraining","type":"bool"}],"name":"setTrainingMode","outputs":[],"stateMutability":"nonpayable","type":"function"},{"inputs":[{"internalType":"address","name":"_tokenAddress","type":"address"}],"name":"withdraw","outputs":[],"stateMutability":"nonpayable","type":"function"},{"inputs":[],"name":"withdrawETH","outputs":[],"stateMutability":"nonpayable","type":"function"}],"evm":{"bytecode":{"linkReferences":{},"object":"61012080604052346200019457608081620017ca803803809162000024828562000199565b83398101031262000194576200003a81620001d3565b906200004960208201620001d3565b916200006660606200005e60408501620001d3565b9301620001d3565b6001600081905580546001600160a81b0319163317600160a01b17905560a082905260405163026b1d5f60e01b81529390926001600160a01b03929091906020908690600490829087165afa94851562000188576000956200013f575b50828094951660805260c0521660e052610100911681526040516115e19182620001e983396080518281816103c0015281816107470152610a4c015260a0518261023c015260c0518281816107030152610c26015260e05182818161028001528181611156015261127f01525181818161078b01526113250152f35b946020863d82116200017f575b816200015b6020938362000199565b810103126200017c57508262000173819596620001d3565b959450620000c3565b80fd5b3d91506200014c565b6040513d6000823e3d90fd5b600080fd5b601f909101601f19168101906001600160401b03821190821017620001bd57604052565b634e487b7160e01b600052604160045260246000fd5b51906001600160a01b0382168203620001945756fe608060408181526004908136101561001657600080fd5b600092833560e01c9081630138c99b14610820575080631b11d0ff146107af578063227ba7ed1461076b57806340f11633146107275780634dbe7e92146106e357806351cff8d91461051a578063843decc8146102cc5780638da5cb5b146102a4578063911d93a814610260578063a5fcb16a1461021c578063d4fd6d2f1461019e5763e086e5ec146100a857600080fd5b3461019a578260031936011261019a576001600160a01b03600154166100cf81331461089b565b47908115610157578480809381935af13d15610152573d6100ef81610957565b906100fc84519283610907565b81528460203d92013e5b1561010f578280f35b906020606492519162461bcd60e51b8352820152601360248201527f455448207472616e73666572206661696c6564000000000000000000000000006044820152fd5b610106565b606484602085519162461bcd60e51b8352820152601260248201527f4e6f2045544820746f20776974686472617700000000000000000000000000006044820152fd5b8280fd5b5050346102185760203660031901126102185735801515809103610218577fffffffffffffffffffffff00ffffffffffffffffffffffffffffffffffffffff74ff00000000000000000000000000000000000000006001549261020b6001600160a01b038516331461089b565b60a01b1691161760015580f35b5080fd5b838234610218578160031936011261021857602090516001600160a01b037f0000000000000000000000000000000000000000000000000000000000000000168152f35b838234610218578160031936011261021857602090516001600160a01b037f0000000000000000000000000000000000000000000000000000000000000000168152f35b8382346102185781600319360112610218576020906001600160a01b03600154169051908152f35b503461019a5760e036600319011261019a576102e6610844565b9160443560ff81168091036105165767ffffffffffffffff9060643582811161051257610316903690850161085f565b916084359060ff821680920361050e5760a43585811161050a5761033d903690880161085f565b93909260c4948535926001600160a01b03978d89861680960361050757546002146104c4576103bd938c938f60a09897946103ab946002610392935587519a8b9860209b8c8b015289015260c08801916108e6565b916060860152601f1998898684030160808701526108e6565b9060a083015203848101845283610907565b847f00000000000000000000000000000000000000000000000000000000000000001694853b156104c0579893918a95939189519a8b967f42b0b77c000000000000000000000000000000000000000000000000000000008852308b890152166024870152602435604487015260a060648701528151918260a4880152875b8381106104a55750505091848692601f858585859886010152856084850152011681010301925af1801561049b57610477575b846001815580f35b83116104885750523880808061046f565b836041602492634e487b7160e01b835252fd5b83513d87823e3d90fd5b8181018301519781018601979097528c97508b96820161043c565b8a80fd5b60648b60208e519162461bcd60e51b8352820152601f60248201527f5265656e7472616e637947756172643a207265656e7472616e742063616c6c006044820152fd5b80fd5b8980fd5b8880fd5b8680fd5b8480fd5b503461019a57602090816003193601126106df57610536610844565b6001600160a01b0380600154169161054f83331461089b565b168251917f70a0823100000000000000000000000000000000000000000000000000000000835230868401528483602481855afa9283156106d55787936106a6575b508215610664579184916105d09388865180968195829463a9059cbb60e01b84528c8401602090939291936001600160a01b0360408201951681520152565b03925af190811561065a57859161062d575b50156105ec578380f35b60649350519162461bcd60e51b8352820152601560248201527f546f6b656e207472616e73666572206661696c656400000000000000000000006044820152fd5b61064d9150833d8511610653575b6106458183610907565b81019061093f565b386105e2565b503d61063b565b82513d87823e3d90fd5b6064868686519162461bcd60e51b8352820152601560248201527f4e6f20746f6b656e7320746f20776974686472617700000000000000000000006044820152fd5b9092508481813d83116106ce575b6106be8183610907565b8101031261051257519138610591565b503d6106b4565b84513d89823e3d90fd5b8380fd5b838234610218578160031936011261021857602090516001600160a01b037f0000000000000000000000000000000000000000000000000000000000000000168152f35b838234610218578160031936011261021857602090516001600160a01b037f0000000000000000000000000000000000000000000000000000000000000000168152f35b838234610218578160031936011261021857602090516001600160a01b037f0000000000000000000000000000000000000000000000000000000000000000168152f35b50903461019a5760a036600319011261019a576107ca610844565b90606435936001600160a01b0385168503610507576084359067ffffffffffffffff8211610507575091610807602095926108179436910161085f565b9290916044359060243590610a3d565b90519015158152f35b84903461021857816003193601126102185760209060ff60015460a01c1615158152f35b600435906001600160a01b038216820361085a57565b600080fd5b9181601f8401121561085a5782359167ffffffffffffffff831161085a576020838186019501011161085a57565b359060ff8216820361085a57565b156108a257565b606460405162461bcd60e51b815260206004820152600960248201527f4e6f74206f776e657200000000000000000000000000000000000000000000006044820152fd5b908060209392818452848401376000828201840152601f01601f1916010190565b90601f8019910116810190811067ffffffffffffffff82111761092957604052565b634e487b7160e01b600052604160045260246000fd5b9081602091031261085a5751801515810361085a5790565b67ffffffffffffffff811161092957601f01601f191660200190565b81601f8201121561085a5780359061098a82610957565b926109986040519485610907565b8284526020838301011161085a57816000926020809301838601378301015290565b51906001600160a01b038216820361085a57565b919082604091031261085a5760206109e5836109ba565b92015190565b9081606091031261085a576109ff816109ba565b91602082015162ffffff8116810361085a5760409092015190565b91908203918211610a2757565b634e487b7160e01b600052601160045260246000fd5b9091926001600160a01b0391827f000000000000000000000000000000000000000000000000000000000000000016948533036110fa57840190818511610a275760019760ff895460a01c1661104e5787019460a08887031261085a57610aa38861088d565b60209867ffffffffffffffff90808b013582811161085a5789610ac7918301610973565b604099610ad58b840161088d565b93606084013590811161085a57608091610af0918501610973565b9201359389851680950361085a5784918d8f60ff8d94168015600014610f8d5750509081610b2492825183010191016109eb565b93919290921603610f4a579085610b3c92868961113e565b915b8215610f07578c9060ff1680610e4b575050808b80610b62935183010191016109eb565b93909189808816911603610e08579085610b7d94939261113e565b905b8115610dc55783821091849088908890600086610d4f57507f4afa6bf17a7389e0fa12112631628c1c63c07560ca2067c34a8a11fb26fd985293610bc291610a1a565b975b8251948552888d8601521692a2610ce657845163095ea7b360e01b81526001600160a01b03969096166004870152602486019190915282169385816044816000895af18015610cdb57610cbe575b5060008113610c24575b505050505090565b7f000000000000000000000000000000000000000000000000000000000000000082168414610c1c578554835163a9059cbb60e01b815292166001600160a01b0316600483015260248201529183908390816000816044810103925af1908115610cb45750610c96575b808080610c1c565b81610cac92903d10610653576106458183610907565b503880610c8e565b513d6000823e3d90fd5b610cd490863d8811610653576106458183610907565b5038610c12565b84513d6000823e3d90fd5b60848786519062461bcd60e51b82526004820152603c60248201527f417262697472616765206661696c65643a20496e73756666696369656e74206660448201527f756e647320746f207265706179206c6f616e202b207072656d69756d000000006064820152fd5b93909150610d5d9250610a1a565b907f80000000000000000000000000000000000000000000000000000000000000008214610db157877f4afa6bf17a7389e0fa12112631628c1c63c07560ca2067c34a8a11fb26fd9852928a920397610bc4565b80634e487b7160e01b602492526011600452fd5b60648988519062461bcd60e51b82526004820152601a60248201527f53776170323a20496e73756666696369656e74206f75747075740000000000006044820152fd5b60648c8b519062461bcd60e51b82526004820152601c60248201527f53776170323a20746f6b656e4f7574556e6932206d69736d61746368000000006044820152fd5b03610ec457808b80610e62935183010191016109ce565b929088808716911603610e81579084610e7b939261130d565b90610b7f565b60648b8a519062461bcd60e51b82526004820152601e60248201527f53776170323a20746f6b656e4f7574537573686932206d69736d6174636800006044820152fd5b60648b8a519062461bcd60e51b82526004820152601f60248201527f496e76616c6964204445582073656c6563746f7220666f7220537761702032006044820152fd5b60648c8b519062461bcd60e51b82526004820152601a60248201527f53776170313a20496e73756666696369656e74206f75747075740000000000006044820152fd5b60648d8c519062461bcd60e51b82526004820152601c60248201527f53776170313a20746f6b656e4f7574556e6931206d69736d61746368000000006044820152fd5b9294509250501460001461100b5783610faf828e808d955183010191016109ce565b921603610fc857610fc29085858861130d565b91610b3e565b60648c8b519062461bcd60e51b82526004820152601e60248201527f53776170313a20746f6b656e4f7574537573686931206d69736d6174636800006044820152fd5b60648c8b519062461bcd60e51b82526004820152601f60248201527f496e76616c6964204445582073656c6563746f7220666f7220537761702031006044820152fd5b50926110c09650600091947f4afa6bf17a7389e0fa12112631628c1c63c07560ca2067c34a8a11fb26fd9852604083602099968251948552868b8601521692a260405180978196829563095ea7b360e01b845260048401602090939291936001600160a01b0360408201951681520152565b0393165af180156110ee576110d3575090565b6110ea9060203d8111610653576106458183610907565b5090565b6040513d6000823e3d90fd5b606460405162461bcd60e51b815260206004820152601860248201527f43616c6c6572206d757374206265204161766520506f6f6c00000000000000006044820152fd5b6040805163095ea7b360e01b81526001600160a01b037f000000000000000000000000000000000000000000000000000000000000000081166004830152602482018790529196939592909116939291906020816044816000895af18015611302576112e3575b50855161010081019481861067ffffffffffffffff871117610929577f414bf389000000000000000000000000000000000000000000000000000000009662ffffff89966001600160a01b039893899489528552836020860193168352818886019116815283606086019330855281608088019742895260a08101998a5260c081019a8b5260e081019b60008d52519d8e52511660048d0152511660248b015251166044890152511660648701525160848601525160a48501525160c4840152511660e48201526020816101048160006001600160a01b037f0000000000000000000000000000000000000000000000000000000000000000165af1918215610cb457506000916112b4575090565b90506020813d6020116112db575b816112cf60209383610907565b8101031261085a575190565b3d91506112c2565b6112fb9060203d602011610653576106458183610907565b50386111a5565b87513d6000823e3d90fd5b6040805163095ea7b360e01b81526001600160a01b037f000000000000000000000000000000000000000000000000000000000000000081166004808401829052602484018890526020989497909660009693959492938616929091908a816044818b885af180156115a157611584575b50885167ffffffffffffffff96906060810188811182821017611571578b52600281528b8101948b36873781511561155e57855280519360019485101561155e5792828a979592989694168c8901528b519788967f38ed173900000000000000000000000000000000000000000000000000000000885260a48801928d890152602488015260a06044880152518091528c60c48701949388915b838310611540575050505050508383809230606483015242608483015203925af1948515611537578395611493575b505083516000198101939150831161148057835183101561146d57505060051b01015190565b906032602492634e487b7160e01b835252fd5b906011602492634e487b7160e01b835252fd5b90919294503d8086843e6114a78184610907565b820191868184031261152057805190848211610512570182601f82011215611520578051938411611524578360051b9151936114e588840186610907565b845286808501928201019283116115205786809101915b838310611510575050505091388080611447565b82518152918101918791016114fc565b8580fd5b602486604187634e487b7160e01b835252fd5b513d84823e3d90fd5b8551821687528c99508a98509586019590940193908301908e611418565b60248a60328d634e487b7160e01b835252fd5b60248a60418d634e487b7160e01b835252fd5b61159a908b3d8d11610653576106458183610907565b503861137e565b8a513d8a823e3d90fdfea26469706673582212205eca5f31969efd01833ca2416008d4e66801fe34a47b436e6b76b97e2665449764736f6c63430008130033","opcodes":"PUSH2 0x120 DUP1 PUSH1 0x40 MSTORE CALLVALUE PUSH3 0x194 JUMPI PUSH1 0x80 DUP2 PUSH3 0x17CA DUP1 CODESIZE SUB DUP1 SWAP2 PUSH3 0x24 DUP3 DUP6 PUSH3 0x199 JUMP JUMPDEST DUP4 CODECOPY DUP2 ADD SUB SLT PUSH3 0x194 JUMPI PUSH3 0x3A DUP2 PUSH3 0x1D3 JUMP JUMPDEST SWAP1 PUSH3 0x49 PUSH1 0x20 DUP3 ADD PUSH3 0x1D3 JUMP JUMPDEST SWAP2 PUSH3 0x66 PUSH1 0x60 PUSH3 0x5E PUSH1 0x40 DUP6 ADD PUSH3 0x1D3 JUMP JUMPDEST SWAP4 ADD PUSH3 0x1D3 JUMP JUMPDEST PUSH1 0x1 PUSH1 0x0 DUP2 SWAP1 SSTORE DUP1 SLOAD PUSH1 0x1 PUSH1 0x1 PUSH1 0xA8 SHL SUB NOT AND CALLER OR PUSH1 0x1 PUSH1 0xA0 SHL OR SWAP1 SSTORE PUSH1 0xA0 DUP3 SWAP1 MSTORE PUSH1 0x40 MLOAD PUSH4 0x26B1D5F PUSH1 0xE0 SHL DUP2 MSTORE SWAP4 SWAP1 SWAP3 PUSH1 0x1 PUSH1 0x1 PUSH1 0xA0 SHL SUB SWAP3 SWAP1 SWAP2 SWAP1 PUSH1 0x20 SWAP1 DUP7 SWAP1 PUSH1 0x4 SWAP1 DUP3 SWAP1 DUP8 AND GAS STATICCALL SWAP5 DUP6 ISZERO PUSH3 0x188 JUMPI PUSH1 0x0 SWAP6 PUSH3 0x13F JUMPI JUMPDEST POP DUP3 DUP1 SWAP5 SWAP6 AND PUSH1 0x80 MSTORE PUSH1 0xC0 MSTORE AND PUSH1 0xE0 MSTORE PUSH2 0x100 SWAP2 AND DUP2 MSTORE PUSH1 0x40 MLOAD PUSH2 0x15E1 SWAP2 DUP3 PUSH3 0x1E9 DUP4 CODECOPY PUSH1 0x80 MLOAD DUP3 DUP2 DUP2 PUSH2 0x3C0 ADD MSTORE DUP2 DUP2 PUSH2 0x747 ADD MSTORE PUSH2 0xA4C ADD MSTORE PUSH1 0xA0 MLOAD DUP3 PUSH2 0x23C ADD MSTORE PUSH1 0xC0 MLOAD DUP3 DUP2 DUP2 PUSH2 0x703 ADD MSTORE PUSH2 0xC26 ADD MSTORE PUSH1 0xE0 MLOAD DUP3 DUP2 DUP2 PUSH2 0x280 ADD MSTORE DUP2 DUP2 PUSH2 0x1156 ADD MSTORE PUSH2 0x127F ADD MSTORE MLOAD DUP2 DUP2 DUP2 PUSH2 0x78B ADD MSTORE PUSH2 0x1325 ADD MSTORE RETURN JUMPDEST SWAP5 PUSH1 0x20 DUP7 RETURNDATASIZE DUP3 GT PUSH3 0x17F JUMPI JUMPDEST DUP2 PUSH3 0x15B PUSH1 0x20 SWAP4 DUP4 PUSH3 0x199 JUMP JUMPDEST DUP2 ADD SUB SLT PUSH3 0x17C JUMPI POP DUP3 PUSH3 0x173 DUP2 SWAP6 SWAP7 PUSH3 0x1D3 JUMP JUMPDEST SWAP6 SWAP5 POP PUSH3 0xC3 JUMP JUMPDEST DUP1 REVERT JUMPDEST RETURNDATASIZE SWAP2 POP PUSH3 0x14C JUMP JUMPDEST PUSH1 0x40 MLOAD RETURNDATASIZE PUSH1 0x0 DUP3 RETURNDATACOPY RETURNDATASIZE SWAP1 REVERT JUMPDEST PUSH1 0x0 DUP1 REVERT JUMPDEST PUSH1 0x1F SWAP1 SWAP2 ADD PUSH1 0x1F NOT AND DUP2 ADD SWAP1 PUSH1 0x1 PUSH1 0x1 PUSH1 0x40 SHL SUB DUP3 GT SWAP1 DUP3 LT OR PUSH3 0x1BD JUMPI PUSH1 0x40 MSTORE JUMP JUMPDEST PUSH4 0x4E487B71 PUSH1 0xE0 SHL PUSH1 0x0 MSTORE PUSH1 0x41 PUSH1 0x4 MSTORE PUSH1 0x24 PUSH1 0x0 REVERT JUMPDEST MLOAD SWAP1 PUSH1 0x1 PUSH1 0x1 PUSH1 0xA0 SHL SUB DUP3 AND DUP3 SUB PUSH3 0x194 JUMPI JUMP INVALID PUSH1 0x80 PUSH1 0x40 DUP2 DUP2 MSTORE PUSH1 0x4 SWAP1 DUP2 CALLDATASIZE LT ISZERO PUSH2 0x16 JUMPI PUSH1 0x0 DUP1 REVERT JUMPDEST PUSH1 0x0 SWAP3 DUP4 CALLDATALOAD PUSH1 0xE0 SHR SWAP1 DUP2 PUSH4 0x138C99B EQ PUSH2 0x820 JUMPI POP DUP1 PUSH4 0x1B11D0FF EQ PUSH2 0x7AF JUMPI DUP1 PUSH4 0x227BA7ED EQ PUSH2 0x76B JUMPI DUP1 PUSH4 0x40F11633 EQ PUSH2 0x727 JUMPI DUP1 PUSH4 0x4DBE7E92 EQ PUSH2 0x6E3 JUMPI DUP1 PUSH4 0x51CFF8D9 EQ PUSH2 0x51A JUMPI DUP1 PUSH4 0x843DECC8 EQ PUSH2 0x2CC JUMPI DUP1 PUSH4 0x8DA5CB5B EQ PUSH2 0x2A4 JUMPI DUP1 PUSH4 0x911D93A8 EQ PUSH2 0x260 JUMPI DUP1 PUSH4 0xA5FCB16A EQ PUSH2 0x21C JUMPI DUP1 PUSH4 0xD4FD6D2F EQ PUSH2 0x19E JUMPI PUSH4 0xE086E5EC EQ PUSH2 0xA8 JUMPI PUSH1 0x0 DUP1 REVERT JUMPDEST CALLVALUE PUSH2 0x19A JUMPI DUP3 PUSH1 0x3 NOT CALLDATASIZE ADD SLT PUSH2 0x19A JUMPI PUSH1 0x1 PUSH1 0x1 PUSH1 0xA0 SHL SUB PUSH1 0x1 SLOAD AND PUSH2 0xCF DUP2 CALLER EQ PUSH2 0x89B JUMP JUMPDEST SELFBALANCE SWAP1 DUP2 ISZERO PUSH2 0x157 JUMPI DUP5 DUP1 DUP1 SWAP4 DUP2 SWAP4 GAS CALL RETURNDATASIZE ISZERO PUSH2 0x152 JUMPI RETURNDATASIZE PUSH2 0xEF DUP2 PUSH2 0x957 JUMP JUMPDEST SWAP1 PUSH2 0xFC DUP5 MLOAD SWAP3 DUP4 PUSH2 0x907 JUMP JUMPDEST DUP2 MSTORE DUP5 PUSH1 0x20 RETURNDATASIZE SWAP3 ADD RETURNDATACOPY JUMPDEST ISZERO PUSH2 0x10F JUMPI DUP3 DUP1 RETURN JUMPDEST SWAP1 PUSH1 0x20 PUSH1 0x64 SWAP3 MLOAD SWAP2 PUSH3 0x461BCD PUSH1 0xE5 SHL DUP4 MSTORE DUP3 ADD MSTORE PUSH1 0x13 PUSH1 0x24 DUP3 ADD MSTORE PUSH32 0x455448207472616E73666572206661696C656400000000000000000000000000 PUSH1 0x44 DUP3 ADD MSTORE REVERT JUMPDEST PUSH2 0x106 JUMP JUMPDEST PUSH1 0x64 DUP5 PUSH1 0x20 DUP6 MLOAD SWAP2 PUSH3 0x461BCD PUSH1 0xE5 SHL DUP4 MSTORE DUP3 ADD MSTORE PUSH1 0x12 PUSH1 0x24 DUP3 ADD MSTORE PUSH32 0x4E6F2045544820746F2077697468647261770000000000000000000000000000 PUSH1 0x44 DUP3 ADD MSTORE REVERT JUMPDEST DUP3 DUP1 REVERT JUMPDEST POP POP CALLVALUE PUSH2 0x218 JUMPI PUSH1 0x20 CALLDATASIZE PUSH1 0x3 NOT ADD SLT PUSH2 0x218 JUMPI CALLDATALOAD DUP1 ISZERO ISZERO DUP1 SWAP2 SUB PUSH2 0x218 JUMPI PUSH32 0xFFFFFFFFFFFFFFFFFFFFFF00FFFFFFFFFFFFFFFFFFFFFFFFFFFFFFFFFFFFFFFF PUSH21 0xFF0000000000000000000000000000000000000000 PUSH1 0x1 SLOAD SWAP3 PUSH2 0x20B PUSH1 0x1 PUSH1 0x1 PUSH1 0xA0 SHL SUB DUP6 AND CALLER EQ PUSH2 0x89B JUMP JUMPDEST PUSH1 0xA0 SHL AND SWAP2 AND OR PUSH1 0x1 SSTORE DUP1 RETURN JUMPDEST POP DUP1 REVERT JUMPDEST DUP4 DUP3 CALLVALUE PUSH2 0x218 JUMPI DUP2 PUSH1 0x3 NOT CALLDATASIZE ADD SLT PUSH2 0x218 JUMPI PUSH1 0x20 SWAP1 MLOAD PUSH1 0x1 PUSH1 0x1 PUSH1 0xA0 SHL SUB PUSH32 0x0 AND DUP2 MSTORE RETURN JUMPDEST DUP4 DUP3 CALLVALUE PUSH2 0x218 JUMPI DUP2 PUSH1 0x3 NOT CALLDATASIZE ADD SLT PUSH2 0x218 JUMPI PUSH1 0x20 SWAP1 MLOAD PUSH1 0x1 PUSH1 0x1 PUSH1 0xA0 SHL SUB PUSH32 0x0 AND DUP2 MSTORE RETURN JUMPDEST DUP4 DUP3 CALLVALUE PUSH2 0x218 JUMPI DUP2 PUSH1 0x3 NOT CALLDATASIZE ADD SLT PUSH2 0x218 JUMPI PUSH1 0x20 SWAP1 PUSH1 0x1 PUSH1 0x1 PUSH1 0xA0 SHL SUB PUSH1 0x1 SLOAD AND SWAP1 MLOAD SWAP1 DUP2 MSTORE RETURN JUMPDEST POP CALLVALUE PUSH2 0x19A JUMPI PUSH1 0xE0 CALLDATASIZE PUSH1 0x3 NOT ADD SLT PUSH2 0x19A JUMPI PUSH2 0x2E6 PUSH2 0x844 JUMP JUMPDEST SWAP2 PUSH1 0x44 CALLDATALOAD PUSH1 0xFF DUP2 AND DUP1 SWAP2 SUB PUSH2 0x516 JUMPI PUSH8 0xFFFFFFFFFFFFFFFF SWAP1 PUSH1 0x64 CALLDATALOAD DUP3 DUP2 GT PUSH2 0x512 JUMPI PUSH2 0x316 SWAP1 CALLDATASIZE SWAP1 DUP6 ADD PUSH2 0x85F JUMP JUMPDEST SWAP2 PUSH1 0x84 CALLDATALOAD SWAP1 PUSH1 0xFF DUP3 AND DUP1 SWAP3 SUB PUSH2 0x50E JUMPI PUSH1 0xA4 CALLDATALOAD DUP6 DUP2 GT PUSH2 0x50A JUMPI PUSH2 0x33D SWAP1 CALLDATASIZE SWAP1 DUP9 ADD PUSH2 0x85F JUMP JUMPDEST SWAP4 SWAP1 SWAP3 PUSH1 0xC4 SWAP5 DUP6 CALLDATALOAD SWAP3 PUSH1 0x1 PUSH1 0x1 PUSH1 0xA0 SHL SUB SWAP8 DUP14 DUP10 DUP7 AND DUP1 SWAP7 SUB PUSH2 0x507 JUMPI SLOAD PUSH1 0x2 EQ PUSH2 0x4C4 JUMPI PUSH2 0x3BD SWAP4 DUP13 SWAP4 DUP16 PUSH1 0xA0 SWAP9 SWAP8 SWAP5 PUSH2 0x3AB SWAP5 PUSH1 0x2 PUSH2 0x392 SWAP4 SSTORE DUP8 MLOAD SWAP11 DUP12 SWAP9 PUSH1 0x20 SWAP12 DUP13 DUP12 ADD MSTORE DUP10 ADD MSTORE PUSH1 0xC0 DUP9 ADD SWAP2 PUSH2 0x8E6 JUMP JUMPDEST SWAP2 PUSH1 0x60 DUP7 ADD MSTORE PUSH1 0x1F NOT SWAP9 DUP10 DUP7 DUP5 SUB ADD PUSH1 0x80 DUP8 ADD MSTORE PUSH2 0x8E6 JUMP JUMPDEST SWAP1 PUSH1 0xA0 DUP4 ADD MSTORE SUB DUP5 DUP2 ADD DUP5 MSTORE DUP4 PUSH2 0x907 JUMP JUMPDEST DUP5 PUSH32 0x0 AND SWAP5 DUP6 EXTCODESIZE ISZERO PUSH2 0x4C0 JUMPI SWAP9 SWAP4 SWAP2 DUP11 SWAP6 SWAP4 SWAP2 DUP10 MLOAD SWAP11 DUP12 SWAP7 PUSH32 0x42B0B77C00000000000000000000000000000000000000000000000000000000 DUP9 MSTORE ADDRESS DUP12 DUP10 ADD MSTORE AND PUSH1 0x24 DUP8 ADD MSTORE PUSH1 0x24 CALLDATALOAD PUSH1 0x44 DUP8 ADD MSTORE PUSH1 0xA0 PUSH1 0x64 DUP8 ADD MSTORE DUP2 MLOAD SWAP2 DUP3 PUSH1 0xA4 DUP9 ADD MSTORE DUP8 JUMPDEST DUP4 DUP2 LT PUSH2 0x4A5 JUMPI POP POP POP SWAP2 DUP5 DUP7 SWAP3 PUSH1 0x1F DUP6 DUP6 DUP6 DUP6 SWAP9 DUP7 ADD ADD MSTORE DUP6 PUSH1 0x84 DUP6 ADD MSTORE ADD AND DUP2 ADD SUB ADD SWAP3 GAS CALL DUP1 ISZERO PUSH2 0x49B JUMPI PUSH2 0x477 JUMPI JUMPDEST DUP5 PUSH1 0x1 DUP2 SSTORE DUP1 RETURN JUMPDEST DUP4 GT PUSH2 0x488 JUMPI POP MSTORE CODESIZE DUP1 DUP1 DUP1 PUSH2 0x46F JUMP JUMPDEST DUP4 PUSH1 0x41 PUSH1 0x24 SWAP3 PUSH4 0x4E487B71 PUSH1 0xE0 SHL DUP4 MSTORE MSTORE REVERT JUMPDEST DUP4 MLOAD RETURNDATASIZE DUP8 DUP3 RETURNDATACOPY RETURNDATASIZE SWAP1 REVERT JUMPDEST DUP2 DUP2 ADD DUP4 ADD MLOAD SWAP8 DUP2 ADD DUP7 ADD SWAP8 SWAP1 SWAP8 MSTORE DUP13 SWAP8 POP DUP12 SWAP7 DUP3 ADD PUSH2 0x43C JUMP JUMPDEST DUP11 DUP1 REVERT JUMPDEST PUSH1 0x64 DUP12 PUSH1 0x20 DUP15 MLOAD SWAP2 PUSH3 0x461BCD PUSH1 0xE5 SHL DUP4 MSTORE DUP3 ADD MSTORE PUSH1 0x1F PUSH1 0x24 DUP3 ADD MSTORE PUSH32 0x5265656E7472616E637947756172643A207265656E7472616E742063616C6C00 PUSH1 0x44 DUP3 ADD MSTORE REVERT JUMPDEST DUP1 REVERT JUMPDEST DUP10 DUP1 REVERT JUMPDEST DUP9 DUP1 REVERT JUMPDEST DUP7 DUP1 REVERT JUMPDEST DUP5 DUP1 REVERT JUMPDEST POP CALLVALUE PUSH2 0x19A JUMPI PUSH1 0x20 SWAP1 DUP2 PUSH1 0x3 NOT CALLDATASIZE ADD SLT PUSH2 0x6DF JUMPI PUSH2 0x536 PUSH2 0x844 JUMP JUMPDEST PUSH1 0x1 PUSH1 0x1 PUSH1 0xA0 SHL SUB DUP1 PUSH1 0x1 SLOAD AND SWAP2 PUSH2 0x54F DUP4 CALLER EQ PUSH2 0x89B JUMP JUMPDEST AND DUP3 MLOAD SWAP2 PUSH32 0x70A0823100000000000000000000000000000000000000000000000000000000 DUP4 MSTORE ADDRESS DUP7 DUP5 ADD MSTORE DUP5 DUP4 PUSH1 0x24 DUP2 DUP6 GAS STATICCALL SWAP3 DUP4 ISZERO PUSH2 0x6D5 JUMPI DUP8 SWAP4 PUSH2 0x6A6 JUMPI JUMPDEST POP DUP3 ISZERO PUSH2 0x664 JUMPI SWAP2 DUP5 SWAP2 PUSH2 0x5D0 SWAP4 DUP9 DUP7 MLOAD DUP1 SWAP7 DUP2 SWAP6 DUP3 SWAP5 PUSH4 0xA9059CBB PUSH1 0xE0 SHL DUP5 MSTORE DUP13 DUP5 ADD PUSH1 0x20 SWAP1 SWAP4 SWAP3 SWAP2 SWAP4 PUSH1 0x1 PUSH1 0x1 PUSH1 0xA0 SHL SUB PUSH1 0x40 DUP3 ADD SWAP6 AND DUP2 MSTORE ADD MSTORE JUMP JUMPDEST SUB SWAP3 GAS CALL SWAP1 DUP2 ISZERO PUSH2 0x65A JUMPI DUP6 SWAP2 PUSH2 0x62D JUMPI JUMPDEST POP ISZERO PUSH2 0x5EC JUMPI DUP4 DUP1 RETURN JUMPDEST PUSH1 0x64 SWAP4 POP MLOAD SWAP2 PUSH3 0x461BCD PUSH1 0xE5 SHL DUP4 MSTORE DUP3 ADD MSTORE PUSH1 0x15 PUSH1 0x24 DUP3 ADD MSTORE PUSH32 0x546F6B656E207472616E73666572206661696C65640000000000000000000000 PUSH1 0x44 DUP3 ADD MSTORE REVERT JUMPDEST PUSH2 0x64D SWAP2 POP DUP4 RETURNDATASIZE DUP6 GT PUSH2 0x653 JUMPI JUMPDEST PUSH2 0x645 DUP2 DUP4 PUSH2 0x907 JUMP JUMPDEST DUP2 ADD SWAP1 PUSH2 0x93F JUMP JUMPDEST CODESIZE PUSH2 0x5E2 JUMP JUMPDEST POP RETURNDATASIZE PUSH2 0x63B JUMP JUMPDEST DUP3 MLOAD RETURNDATASIZE DUP8 DUP3 RETURNDATACOPY RETURNDATASIZE SWAP1 REVERT JUMPDEST PUSH1 0x64 DUP7 DUP7 DUP7 MLOAD SWAP2 PUSH3 0x461BCD PUSH1 0xE5 SHL DUP4 MSTORE DUP3 ADD MSTORE PUSH1 0x15 PUSH1 0x24 DUP3 ADD MSTORE PUSH32 0x4E6F20746F6B656E7320746F2077697468647261770000000000000000000000 PUSH1 0x44 DUP3 ADD MSTORE REVERT JUMPDEST SWAP1 SWAP3 POP DUP5 DUP2 DUP2 RETURNDATASIZE DUP4 GT PUSH2 0x6CE JUMPI JUMPDEST PUSH2 0x6BE DUP2 DUP4 PUSH2 0x907 JUMP JUMPDEST DUP2 ADD SUB SLT PUSH2 0x512 JUMPI MLOAD SWAP2 CODESIZE PUSH2 0x591 JUMP JUMPDEST POP RETURNDATASIZE PUSH2 0x6B4 JUMP JUMPDEST DUP5 MLOAD RETURNDATASIZE DUP10 DUP3 RETURNDATACOPY RETURNDATASIZE SWAP1 REVERT JUMPDEST DUP4 DUP1 REVERT JUMPDEST DUP4 DUP3 CALLVALUE PUSH2 0x218 JUMPI DUP2 PUSH1 0x3 NOT CALLDATASIZE ADD SLT PUSH2 0x218 JUMPI PUSH1 0x20 SWAP1 MLOAD PUSH1 0x1 PUSH1 0x1 PUSH1 0xA0 SHL SUB PUSH32 0x0 AND DUP2 MSTORE RETURN JUMPDEST DUP4 DUP3 CALLVALUE PUSH2 0x218 JUMPI DUP2 PUSH1 0x3 NOT CALLDATASIZE ADD SLT PUSH2 0x218 JUMPI PUSH1 0x20 SWAP1 MLOAD PUSH1 0x1 PUSH1 0x1 PUSH1 0xA0 SHL SUB PUSH32 0x0 AND DUP2 MSTORE RETURN JUMPDEST DUP4 DUP3 CALLVALUE PUSH2 0x218 JUMPI DUP2 PUSH1 0x3 NOT CALLDATASIZE ADD SLT PUSH2 0x218 JUMPI PUSH1 0x20 SWAP1 MLOAD PUSH1 0x1 PUSH1 0x1 PUSH1 0xA0 SHL SUB PUSH32 0x0 AND DUP2 MSTORE RETURN JUMPDEST POP SWAP1 CALLVALUE PUSH2 0x19A JUMPI PUSH1 0xA0 CALLDATASIZE PUSH1 0x3 NOT ADD SLT PUSH2 0x19A JUMPI PUSH2 0x7CA PUSH2 0x844 JUMP JUMPDEST SWAP1 PUSH1 0x64 CALLDATALOAD SWAP4 PUSH1 0x1 PUSH1 0x1 PUSH1 0xA0 SHL SUB DUP6 AND DUP6 SUB PUSH2 0x507 JUMPI PUSH1 0x84 CALLDATALOAD SWAP1 PUSH8 0xFFFFFFFFFFFFFFFF DUP3 GT PUSH2 0x507 JUMPI POP SWAP2 PUSH2 0x807 PUSH1 0x20 SWAP6 SWAP3 PUSH2 0x817 SWAP5 CALLDATASIZE SWAP2 ADD PUSH2 0x85F JUMP JUMPDEST SWAP3 SWAP1 SWAP2 PUSH1 0x44 CALLDATALOAD SWAP1 PUSH1 0x24 CALLDATALOAD SWAP1 PUSH2 0xA3D JUMP JUMPDEST SWAP1 MLOAD SWAP1 ISZERO ISZERO DUP2 MSTORE RETURN JUMPDEST DUP5 SWAP1 CALLVALUE PUSH2 0x218 JUMPI DUP2 PUSH1 0x3 NOT CALLDATASIZE ADD SLT PUSH2 0x218 JUMPI PUSH1 0x20 SWAP1 PUSH1 0xFF PUSH1 0x1 SLOAD PUSH1 0xA0 SHR AND ISZERO ISZERO DUP2 MSTORE RETURN JUMPDEST PUSH1 0x4 CALLDATALOAD SWAP1 PUSH1 0x1 PUSH1 0x1 PUSH1 0xA0 SHL SUB DUP3 AND DUP3 SUB PUSH2 0x85A JUMPI JUMP JUMPDEST PUSH1 0x0 DUP1 REVERT JUMPDEST SWAP2 DUP2 PUSH1 0x1F DUP5 ADD SLT ISZERO PUSH2 0x85A JUMPI DUP3 CALLDATALOAD SWAP2 PUSH8 0xFFFFFFFFFFFFFFFF DUP4 GT PUSH2 0x85A JUMPI PUSH1 0x20 DUP4 DUP2 DUP7 ADD SWAP6 ADD ADD GT PUSH2 0x85A JUMPI JUMP JUMPDEST CALLDATALOAD SWAP1 PUSH1 0xFF DUP3 AND DUP3 SUB PUSH2 0x85A JUMPI JUMP JUMPDEST ISZERO PUSH2 0x8A2 JUMPI JUMP JUMPDEST PUSH1 0x64 PUSH1 0x40 MLOAD PUSH3 0x461BCD PUSH1 0xE5 SHL DUP2 MSTORE PUSH1 0x20 PUSH1 0x4 DUP3 ADD MSTORE PUSH1 0x9 PUSH1 0x24 DUP3 ADD MSTORE PUSH32 0x4E6F74206F776E65720000000000000000000000000000000000000000000000 PUSH1 0x44 DUP3 ADD MSTORE REVERT JUMPDEST SWAP1 DUP1 PUSH1 0x20 SWAP4 SWAP3 DUP2 DUP5 MSTORE DUP5 DUP5 ADD CALLDATACOPY PUSH1 0x0 DUP3 DUP3 ADD DUP5 ADD MSTORE PUSH1 0x1F ADD PUSH1 0x1F NOT AND ADD ADD SWAP1 JUMP JUMPDEST SWAP1 PUSH1 0x1F DUP1 NOT SWAP2 ADD AND DUP2 ADD SWAP1 DUP2 LT PUSH8 0xFFFFFFFFFFFFFFFF DUP3 GT OR PUSH2 0x929 JUMPI PUSH1 0x40 MSTORE JUMP JUMPDEST PUSH4 0x4E487B71 PUSH1 0xE0 SHL PUSH1 0x0 MSTORE PUSH1 0x41 PUSH1 0x4 MSTORE PUSH1 0x24 PUSH1 0x0 REVERT JUMPDEST SWAP1 DUP2 PUSH1 0x20 SWAP2 SUB SLT PUSH2 0x85A JUMPI MLOAD DUP1 ISZERO ISZERO DUP2 SUB PUSH2 0x85A JUMPI SWAP1 JUMP JUMPDEST PUSH8 0xFFFFFFFFFFFFFFFF DUP2 GT PUSH2 0x929 JUMPI PUSH1 0x1F ADD PUSH1 0x1F NOT AND PUSH1 0x20 ADD SWAP1 JUMP JUMPDEST DUP2 PUSH1 0x1F DUP3 ADD SLT ISZERO PUSH2 0x85A JUMPI DUP1 CALLDATALOAD SWAP1 PUSH2 0x98A DUP3 PUSH2 0x957 JUMP JUMPDEST SWAP3 PUSH2 0x998 PUSH1 0x40 MLOAD SWAP5 DUP6 PUSH2 0x907 JUMP JUMPDEST DUP3 DUP5 MSTORE PUSH1 0x20 DUP4 DUP4 ADD ADD GT PUSH2 0x85A JUMPI DUP2 PUSH1 0x0 SWAP3 PUSH1 0x20 DUP1 SWAP4 ADD DUP4 DUP7 ADD CALLDATACOPY DUP4 ADD ADD MSTORE SWAP1 JUMP JUMPDEST MLOAD SWAP1 PUSH1 0x1 PUSH1 0x1 PUSH1 0xA0 SHL SUB DUP3 AND DUP3 SUB PUSH2 0x85A JUMPI JUMP JUMPDEST SWAP2 SWAP1 DUP3 PUSH1 0x40 SWAP2 SUB SLT PUSH2 0x85A JUMPI PUSH1 0x20 PUSH2 0x9E5 DUP4 PUSH2 0x9BA JUMP JUMPDEST SWAP3 ADD MLOAD SWAP1 JUMP JUMPDEST SWAP1 DUP2 PUSH1 0x60 SWAP2 SUB SLT PUSH2 0x85A JUMPI PUSH2 0x9FF DUP2 PUSH2 0x9BA JUMP JUMPDEST SWAP2 PUSH1 0x20 DUP3 ADD MLOAD PUSH3 0xFFFFFF DUP2 AND DUP2 SUB PUSH2 0x85A JUMPI PUSH1 0x40 SWAP1 SWAP3 ADD MLOAD SWAP1 JUMP JUMPDEST SWAP2 SWAP1 DUP3 SUB SWAP2 DUP3 GT PUSH2 0xA27 JUMPI JUMP JUMPDEST PUSH4 0x4E487B71 PUSH1 0xE0 SHL PUSH1 0x0 MSTORE PUSH1 0x11 PUSH1 0x4 MSTORE PUSH1 0x24 PUSH1 0x0 REVERT JUMPDEST SWAP1 SWAP2 SWAP3 PUSH1 0x1 PUSH1 0x1 PUSH1 0xA0 SHL SUB SWAP2 DUP3 PUSH32 0x0 AND SWAP5 DUP6 CALLER SUB PUSH2 0x10FA JUMPI DUP5 ADD SWAP1 DUP2 DUP6 GT PUSH2 0xA27 JUMPI PUSH1 0x1 SWAP8 PUSH1 0xFF DUP10 SLOAD PUSH1 0xA0 SHR AND PUSH2 0x104E JUMPI DUP8 ADD SWAP5 PUSH1 0xA0 DUP9 DUP8 SUB SLT PUSH2 0x85A JUMPI PUSH2 0xAA3 DUP9 PUSH2 0x88D JUMP JUMPDEST PUSH1 0x20 SWAP9 PUSH8 0xFFFFFFFFFFFFFFFF SWAP1 DUP1 DUP12 ADD CALLDATALOAD DUP3 DUP2 GT PUSH2 0x85A JUMPI DUP10 PUSH2 0xAC7 SWAP2 DUP4 ADD PUSH2 0x973 JUMP JUMPDEST PUSH1 0x40 SWAP10 PUSH2 0xAD5 DUP12 DUP5 ADD PUSH2 0x88D JUMP JUMPDEST SWAP4 PUSH1 0x60 DUP5 ADD CALLDATALOAD SWAP1 DUP2 GT PUSH2 0x85A JUMPI PUSH1 0x80 SWAP2 PUSH2 0xAF0 SWAP2 DUP6 ADD PUSH2 0x973 JUMP JUMPDEST SWAP3 ADD CALLDATALOAD SWAP4 DUP10 DUP6 AND DUP1 SWAP6 SUB PUSH2 0x85A JUMPI DUP5 SWAP2 DUP14 DUP16 PUSH1 0xFF DUP14 SWAP5 AND DUP1 ISZERO PUSH1 0x0 EQ PUSH2 0xF8D JUMPI POP POP SWAP1 DUP2 PUSH2 0xB24 SWAP3 DUP3 MLOAD DUP4 ADD ADD SWAP2 ADD PUSH2 0x9EB JUMP JUMPDEST SWAP4 SWAP2 SWAP3 SWAP1 SWAP3 AND SUB PUSH2 0xF4A JUMPI SWAP1 DUP6 PUSH2 0xB3C SWAP3 DUP7 DUP10 PUSH2 0x113E JUMP JUMPDEST SWAP2 JUMPDEST DUP3 ISZERO PUSH2 0xF07 JUMPI DUP13 SWAP1 PUSH1 0xFF AND DUP1 PUSH2 0xE4B JUMPI POP POP DUP1 DUP12 DUP1 PUSH2 0xB62 SWAP4 MLOAD DUP4 ADD ADD SWAP2 ADD PUSH2 0x9EB JUMP JUMPDEST SWAP4 SWAP1 SWAP2 DUP10 DUP1 DUP9 AND SWAP2 AND SUB PUSH2 0xE08 JUMPI SWAP1 DUP6 PUSH2 0xB7D SWAP5 SWAP4 SWAP3 PUSH2 0x113E JUMP JUMPDEST SWAP1 JUMPDEST DUP2 ISZERO PUSH2 0xDC5 JUMPI DUP4 DUP3 LT SWAP2 DUP5 SWAP1 DUP9 SWAP1 DUP9 SWAP1 PUSH1 0x0 DUP7 PUSH2 0xD4F JUMPI POP PUSH32 0x4AFA6BF17A7389E0FA12112631628C1C63C07560CA2067C34A8A11FB26FD9852 SWAP4 PUSH2 0xBC2 SWAP2 PUSH2 0xA1A JUMP JUMPDEST SWAP8 JUMPDEST DUP3 MLOAD SWAP5 DUP6 MSTORE DUP9 DUP14 DUP7 ADD MSTORE AND SWAP3 LOG2 PUSH2 0xCE6 JUMPI DUP5 MLOAD PUSH4 0x95EA7B3 PUSH1 0xE0 SHL DUP2 MSTORE PUSH1 0x1 PUSH1 0x1 PUSH1 0xA0 SHL SUB SWAP7 SWAP1 SWAP7 AND PUSH1 0x4 DUP8 ADD MSTORE PUSH1 0x24 DUP7 ADD SWAP2 SWAP1 SWAP2 MSTORE DUP3 AND SWAP4 DUP6 DUP2 PUSH1 0x44 DUP2 PUSH1 0x0 DUP10 GAS CALL DUP1 ISZERO PUSH2 0xCDB JUMPI PUSH2 0xCBE JUMPI JUMPDEST POP PUSH1 0x0 DUP2 SGT PUSH2 0xC24 JUMPI JUMPDEST POP POP POP POP POP SWAP1 JUMP JUMPDEST PUSH32 0x0 DUP3 AND DUP5 EQ PUSH2 0xC1C JUMPI DUP6 SLOAD DUP4 MLOAD PUSH4 0xA9059CBB PUSH1 0xE0 SHL DUP2 MSTORE SWAP3 AND PUSH1 0x1 PUSH1 0x1 PUSH1 0xA0 SHL SUB AND PUSH1 0x4 DUP4 ADD MSTORE PUSH1 0x24 DUP3 ADD MSTORE SWAP2 DUP4 SWAP1 DUP4 SWAP1 DUP2 PUSH1 0x0 DUP2 PUSH1 0x44 DUP2 ADD SUB SWAP3 GAS CALL SWAP1 DUP2 ISZERO PUSH2 0xCB4 JUMPI POP PUSH2 0xC96 JUMPI JUMPDEST DUP1 DUP1 DUP1 PUSH2 0xC1C JUMP JUMPDEST DUP2 PUSH2 0xCAC SWAP3 SWAP1 RETURNDATASIZE LT PUSH2 0x653 JUMPI PUSH2 0x645 DUP2 DUP4 PUSH2 0x907 JUMP JUMPDEST POP CODESIZE DUP1 PUSH2 0xC8E JUMP JUMPDEST MLOAD RETURNDATASIZE PUSH1 0x0 DUP3 RETURNDATACOPY RETURNDATASIZE SWAP1 REVERT JUMPDEST PUSH2 0xCD4 SWAP1 DUP7 RETURNDATASIZE DUP9 GT PUSH2 0x653 JUMPI PUSH2 0x645 DUP2 DUP4 PUSH2 0x907 JUMP JUMPDEST POP CODESIZE PUSH2 0xC12 JUMP JUMPDEST DUP5 MLOAD RETURNDATASIZE PUSH1 0x0 DUP3 RETURNDATACOPY RETURNDATASIZE SWAP1 REVERT JUMPDEST PUSH1 0x84 DUP8 DUP7 MLOAD SWAP1 PUSH3 0x461BCD PUSH1 0xE5 SHL DUP3 MSTORE PUSH1 0x4 DUP3 ADD MSTORE PUSH1 0x3C PUSH1 0x24 DUP3 ADD MSTORE PUSH32 0x417262697472616765206661696C65643A20496E73756666696369656E742066 PUSH1 0x44 DUP3 ADD MSTORE PUSH32 0x756E647320746F207265706179206C6F616E202B207072656D69756D00000000 PUSH1 0x64 DUP3 ADD MSTORE REVERT JUMPDEST SWAP4 SWAP1 SWAP2 POP PUSH2 0xD5D SWAP3 POP PUSH2 0xA1A JUMP JUMPDEST SWAP1 PUSH32 0x8000000000000000000000000000000000000000000000000000000000000000 DUP3 EQ PUSH2 0xDB1 JUMPI DUP8 PUSH32 0x4AFA6BF17A7389E0FA12112631628C1C63C07560CA2067C34A8A11FB26FD9852 SWAP3 DUP11 SWAP3 SUB SWAP8 PUSH2 0xBC4 JUMP JUMPDEST DUP1 PUSH4 0x4E487B71 PUSH1 0xE0 SHL PUSH1 0x24 SWAP3 MSTORE PUSH1 0x11 PUSH1 0x4 MSTORE REVERT JUMPDEST PUSH1 0x64 DUP10 DUP9 MLOAD SWAP1 PUSH3 0x461BCD PUSH1 0xE5 SHL DUP3 MSTORE PUSH1 0x4 DUP3 ADD MSTORE PUSH1 0x1A PUSH1 0x24 DUP3 ADD MSTORE PUSH32 0x53776170323A20496E73756666696369656E74206F7574707574000000000000 PUSH1 0x44 DUP3 ADD MSTORE REVERT JUMPDEST PUSH1 0x64 DUP13 DUP12 MLOAD SWAP1 PUSH3 0x461BCD PUSH1 0xE5 SHL DUP3 MSTORE PUSH1 0x4 DUP3 ADD MSTORE PUSH1 0x1C PUSH1 0x24 DUP3 ADD MSTORE PUSH32 0x53776170323A20746F6B656E4F7574556E6932206D69736D6174636800000000 PUSH1 0x44 DUP3 ADD MSTORE REVERT JUMPDEST SUB PUSH2 0xEC4 JUMPI DUP1 DUP12 DUP1 PUSH2 0xE62 SWAP4 MLOAD DUP4 ADD ADD SWAP2 ADD PUSH2 0x9CE JUMP JUMPDEST SWAP3 SWAP1 DUP9 DUP1 DUP8 AND SWAP2 AND SUB PUSH2 0xE81 JUMPI SWAP1 DUP5 PUSH2 0xE7B SWAP4 SWAP3 PUSH2 0x130D JUMP JUMPDEST SWAP1 PUSH2 0xB7F JUMP JUMPDEST PUSH1 0x64 DUP12 DUP11 MLOAD SWAP1 PUSH3 0x461BCD PUSH1 0xE5 SHL DUP3 MSTORE PUSH1 0x4 DUP3 ADD MSTORE PUSH1 0x1E PUSH1 0x24 DUP3 ADD MSTORE PUSH32 0x53776170323A20746F6B656E4F7574537573686932206D69736D617463680000 PUSH1 0x44 DUP3 ADD MSTORE REVERT JUMPDEST PUSH1 0x64 DUP12 DUP11 MLOAD SWAP1 PUSH3 0x461BCD PUSH1 0xE5 SHL DUP3 MSTORE PUSH1 0x4 DUP3 ADD MSTORE PUSH1 0x1F PUSH1 0x24 DUP3 ADD MSTORE PUSH32 0x496E76616C6964204445582073656C6563746F7220666F722053776170203200 PUSH1 0x44 DUP3 ADD MSTORE REVERT JUMPDEST PUSH1 0x64 DUP13 DUP12 MLOAD SWAP1 PUSH3 0x461BCD PUSH1 0xE5 SHL DUP3 MSTORE PUSH1 0x4 DUP3 ADD MSTORE PUSH1 0x1A PUSH1 0x24 DUP3 ADD MSTORE PUSH32 0x53776170313A20496E73756666696369656E74206F7574707574000000000000 PUSH1 0x44 DUP3 ADD MSTORE REVERT JUMPDEST PUSH1 0x64 DUP14 DUP13 MLOAD SWAP1 PUSH3 0x461BCD PUSH1 0xE5 SHL DUP3 MSTORE PUSH1 0x4 DUP3 ADD MSTORE PUSH1 0x1C PUSH1 0x24 DUP3 ADD MSTORE PUSH32 0x53776170313A20746F6B656E4F7574556E6931206D69736D6174636800000000 PUSH1 0x44 DUP3 ADD MSTORE REVERT JUMPDEST SWAP3 SWAP5 POP SWAP3 POP POP EQ PUSH1 0x0 EQ PUSH2 0x100B JUMPI DUP4 PUSH2 0xFAF DUP3 DUP15 DUP1 DUP14 SWAP6 MLOAD DUP4 ADD ADD SWAP2 ADD PUSH2 0x9CE JUMP JUMPDEST SWAP3 AND SUB PUSH2 0xFC8 JUMPI PUSH2 0xFC2 SWAP1 DUP6 DUP6 DUP9 PUSH2 0x130D JUMP JUMPDEST SWAP2 PUSH2 0xB3E JUMP JUMPDEST PUSH1 0x64 DUP13 DUP12 MLOAD SWAP1 PUSH3 0x461BCD PUSH1 0xE5 SHL DUP3 MSTORE PUSH1 0x4 DUP3 ADD MSTORE PUSH1 0x1E PUSH1 0x24 DUP3 ADD MSTORE PUSH32 0x53776170313A20746F6B656E4F7574537573686931206D69736D617463680000 PUSH1 0x44 DUP3 ADD MSTORE REVERT JUMPDEST PUSH1 0x64 DUP13 DUP12 MLOAD SWAP1 PUSH3 0x461BCD PUSH1 0xE5 SHL DUP3 MSTORE PUSH1 0x4 DUP3 ADD MSTORE PUSH1 0x1F PUSH1 0x24 DUP3 ADD MSTORE PUSH32 0x496E76616C6964204445582073656C6563746F7220666F722053776170203100 PUSH1 0x44 DUP3 ADD MSTORE REVERT JUMPDEST POP SWAP3 PUSH2 0x10C0 SWAP7 POP PUSH1 0x0 SWAP2 SWAP5 PUSH32 0x4AFA6BF17A7389E0FA12112631628C1C63C07560CA2067C34A8A11FB26FD9852 PUSH1 0x40 DUP4 PUSH1 0x20 SWAP10 SWAP7 DUP3 MLOAD SWAP5 DUP6 MSTORE DUP7 DUP12 DUP7 ADD MSTORE AND SWAP3 LOG2 PUSH1 0x40 MLOAD DUP1 SWAP8 DUP2 SWAP7 DUP3 SWAP6 PUSH4 0x95EA7B3 PUSH1 0xE0 SHL DUP5 MSTORE PUSH1 0x4 DUP5 ADD PUSH1 0x20 SWAP1 SWAP4 SWAP3 SWAP2 SWAP4 PUSH1 0x1 PUSH1 0x1 PUSH1 0xA0 SHL SUB PUSH1 0x40 DUP3 ADD SWAP6 AND DUP2 MSTORE ADD MSTORE JUMP JUMPDEST SUB SWAP4 AND GAS CALL DUP1 ISZERO PUSH2 0x10EE JUMPI PUSH2 0x10D3 JUMPI POP SWAP1 JUMP JUMPDEST PUSH2 0x10EA SWAP1 PUSH1 0x20 RETURNDATASIZE DUP2 GT PUSH2 0x653 JUMPI PUSH2 0x645 DUP2 DUP4 PUSH2 0x907 JUMP JUMPDEST POP SWAP1 JUMP JUMPDEST PUSH1 0x40 MLOAD RETURNDATASIZE PUSH1 0x0 DUP3 RETURNDATACOPY RETURNDATASIZE SWAP1 REVERT JUMPDEST PUSH1 0x64 PUSH1 0x40 MLOAD PUSH3 0x461BCD PUSH1 0xE5 SHL DUP2 MSTORE PUSH1 0x20 PUSH1 0x4 DUP3 ADD MSTORE PUSH1 0x18 PUSH1 0x24 DUP3 ADD MSTORE PUSH32 0x43616C6C6572206D757374206265204161766520506F6F6C0000000000000000 PUSH1 0x44 DUP3 ADD MSTORE REVERT JUMPDEST PUSH1 0x40 DUP1 MLOAD PUSH4 0x95EA7B3 PUSH1 0xE0 SHL DUP2 MSTORE PUSH1 0x1 PUSH1 0x1 PUSH1 0xA0 SHL SUB PUSH32 0x0 DUP2 AND PUSH1 0x4 DUP4 ADD MSTORE PUSH1 0x24 DUP3 ADD DUP8 SWAP1 MSTORE SWAP2 SWAP7 SWAP4 SWAP6 SWAP3 SWAP1 SWAP2 AND SWAP4 SWAP3 SWAP2 SWAP1 PUSH1 0x20 DUP2 PUSH1 0x44 DUP2 PUSH1 0x0 DUP10 GAS CALL DUP1 ISZERO PUSH2 0x1302 JUMPI PUSH2 0x12E3 JUMPI JUMPDEST POP DUP6 MLOAD PUSH2 0x100 DUP2 ADD SWAP5 DUP2 DUP7 LT PUSH8 0xFFFFFFFFFFFFFFFF DUP8 GT OR PUSH2 0x929 JUMPI PUSH32 0x414BF38900000000000000000000000000000000000000000000000000000000 SWAP7 PUSH3 0xFFFFFF DUP10 SWAP7 PUSH1 0x1 PUSH1 0x1 PUSH1 0xA0 SHL SUB SWAP9 SWAP4 DUP10 SWAP5 DUP10 MSTORE DUP6 MSTORE DUP4 PUSH1 0x20 DUP7 ADD SWAP4 AND DUP4 MSTORE DUP2 DUP9 DUP7 ADD SWAP2 AND DUP2 MSTORE DUP4 PUSH1 0x60 DUP7 ADD SWAP4 ADDRESS DUP6 MSTORE DUP2 PUSH1 0x80 DUP9 ADD SWAP8 TIMESTAMP DUP10 MSTORE PUSH1 0xA0 DUP2 ADD SWAP10 DUP11 MSTORE PUSH1 0xC0 DUP2 ADD SWAP11 DUP12 MSTORE PUSH1 0xE0 DUP2 ADD SWAP12 PUSH1 0x0 DUP14 MSTORE MLOAD SWAP14 DUP15 MSTORE MLOAD AND PUSH1 0x4 DUP14 ADD MSTORE MLOAD AND PUSH1 0x24 DUP12 ADD MSTORE MLOAD AND PUSH1 0x44 DUP10 ADD MSTORE MLOAD AND PUSH1 0x64 DUP8 ADD MSTORE MLOAD PUSH1 0x84 DUP7 ADD MSTORE MLOAD PUSH1 0xA4 DUP6 ADD MSTORE MLOAD PUSH1 0xC4 DUP5 ADD MSTORE MLOAD AND PUSH1 0xE4 DUP3 ADD MSTORE PUSH1 0x20 DUP2 PUSH2 0x104 DUP2 PUSH1 0x0 PUSH1 0x1 PUSH1 0x1 PUSH1 0xA0 SHL SUB PUSH32 0x0 AND GAS CALL SWAP2 DUP3 ISZERO PUSH2 0xCB4 JUMPI POP PUSH1 0x0 SWAP2 PUSH2 0x12B4 JUMPI POP SWAP1 JUMP JUMPDEST SWAP1 POP PUSH1 0x20 DUP2 RETURNDATASIZE PUSH1 0x20 GT PUSH2 0x12DB JUMPI JUMPDEST DUP2 PUSH2 0x12CF PUSH1 0x20 SWAP4 DUP4 PUSH2 0x907 JUMP JUMPDEST DUP2 ADD SUB SLT PUSH2 0x85A JUMPI MLOAD SWAP1 JUMP JUMPDEST RETURNDATASIZE SWAP2 POP PUSH2 0x12C2 JUMP JUMPDEST PUSH2 0x12FB SWAP1 PUSH1 0x20 RETURNDATASIZE PUSH1 0x20 GT PUSH2 0x653 JUMPI PUSH2 0x645 DUP2 DUP4 PUSH2 0x907 JUMP JUMPDEST POP CODESIZE PUSH2 0x11A5 JUMP JUMPDEST DUP8 MLOAD RETURNDATASIZE PUSH1 0x0 DUP3 RETURNDATACOPY RETURNDATASIZE SWAP1 REVERT JUMPDEST PUSH1 0x40 DUP1 MLOAD PUSH4 0x95EA7B3 PUSH1 0xE0 SHL DUP2 MSTORE PUSH1 0x1 PUSH1 0x1 PUSH1 0xA0 SHL SUB PUSH32 0x0 DUP2 AND PUSH1 0x4 DUP1 DUP5 ADD DUP3 SWAP1 MSTORE PUSH1 0x24 DUP5 ADD DUP9 SWAP1 MSTORE PUSH1 0x20 SWAP9 SWAP5 SWAP8 SWAP1 SWAP7 PUSH1 0x0 SWAP7 SWAP4 SWAP6 SWAP5 SWAP3 SWAP4 DUP7 AND SWAP3 SWAP1 SWAP2 SWAP1 DUP11 DUP2 PUSH1 0x44 DUP2 DUP12 DUP9 GAS CALL DUP1 ISZERO PUSH2 0x15A1 JUMPI PUSH2 0x1584 JUMPI JUMPDEST POP DUP9 MLOAD PUSH8 0xFFFFFFFFFFFFFFFF SWAP7 SWAP1 PUSH1 0x60 DUP2 ADD DUP9 DUP2 GT DUP3 DUP3 LT OR PUSH2 0x1571 JUMPI DUP12 MSTORE PUSH1 0x2 DUP2 MSTORE DUP12 DUP2 ADD SWAP5 DUP12 CALLDATASIZE DUP8 CALLDATACOPY DUP2 MLOAD ISZERO PUSH2 0x155E JUMPI DUP6 MSTORE DUP1 MLOAD SWAP4 PUSH1 0x1 SWAP5 DUP6 LT ISZERO PUSH2 0x155E JUMPI SWAP3 DUP3 DUP11 SWAP8 SWAP6 SWAP3 SWAP9 SWAP7 SWAP5 AND DUP13 DUP10 ADD MSTORE DUP12 MLOAD SWAP8 DUP9 SWAP7 PUSH32 0x38ED173900000000000000000000000000000000000000000000000000000000 DUP9 MSTORE PUSH1 0xA4 DUP9 ADD SWAP3 DUP14 DUP10 ADD MSTORE PUSH1 0x24 DUP9 ADD MSTORE PUSH1 0xA0 PUSH1 0x44 DUP9 ADD MSTORE MLOAD DUP1 SWAP2 MSTORE DUP13 PUSH1 0xC4 DUP8 ADD SWAP5 SWAP4 DUP9 SWAP2 JUMPDEST DUP4 DUP4 LT PUSH2 0x1540 JUMPI POP POP POP POP POP POP DUP4 DUP4 DUP1 SWAP3 ADDRESS PUSH1 0x64 DUP4 ADD MSTORE TIMESTAMP PUSH1 0x84 DUP4 ADD MSTORE SUB SWAP3 GAS CALL SWAP5 DUP6 ISZERO PUSH2 0x1537 JUMPI DUP4 SWAP6 PUSH2 0x1493 JUMPI JUMPDEST POP POP DUP4 MLOAD PUSH1 0x0 NOT DUP2 ADD SWAP4 SWAP2 POP DUP4 GT PUSH2 0x1480 JUMPI DUP4 MLOAD DUP4 LT ISZERO PUSH2 0x146D JUMPI POP POP PUSH1 0x5 SHL ADD ADD MLOAD SWAP1 JUMP JUMPDEST SWAP1 PUSH1 0x32 PUSH1 0x24 SWAP3 PUSH4 0x4E487B71 PUSH1 0xE0 SHL DUP4 MSTORE MSTORE REVERT JUMPDEST SWAP1 PUSH1 0x11 PUSH1 0x24 SWAP3 PUSH4 0x4E487B71 PUSH1 0xE0 SHL DUP4 MSTORE MSTORE REVERT JUMPDEST SWAP1 SWAP2 SWAP3 SWAP5 POP RETURNDATASIZE DUP1 DUP7 DUP5 RETURNDATACOPY PUSH2 0x14A7 DUP2 DUP5 PUSH2 0x907 JUMP JUMPDEST DUP3 ADD SWAP2 DUP7 DUP2 DUP5 SUB SLT PUSH2 0x1520 JUMPI DUP1 MLOAD SWAP1 DUP5 DUP3 GT PUSH2 0x512 JUMPI ADD DUP3 PUSH1 0x1F DUP3 ADD SLT ISZERO PUSH2 0x1520 JUMPI DUP1 MLOAD SWAP4 DUP5 GT PUSH2 0x1524 JUMPI DUP4 PUSH1 0x5 SHL SWAP2 MLOAD SWAP4 PUSH2 0x14E5 DUP9 DUP5 ADD DUP7 PUSH2 0x907 JUMP JUMPDEST DUP5 MSTORE DUP7 DUP1 DUP6 ADD SWAP3 DUP3 ADD ADD SWAP3 DUP4 GT PUSH2 0x1520 JUMPI DUP7 DUP1 SWAP2 ADD SWAP2 JUMPDEST DUP4 DUP4 LT PUSH2 0x1510 JUMPI POP POP POP POP SWAP2 CODESIZE DUP1 DUP1 PUSH2 0x1447 JUMP JUMPDEST DUP3 MLOAD DUP2 MSTORE SWAP2 DUP2 ADD SWAP2 DUP8 SWAP2 ADD PUSH2 0x14FC JUMP JUMPDEST DUP6 DUP1 REVERT JUMPDEST PUSH1 0x24 DUP7 PUSH1 0x41 DUP8 PUSH4 0x4E487B71 PUSH1 0xE0 SHL DUP4 MSTORE MSTORE REVERT JUMPDEST MLOAD RETURNDATASIZE DUP5 DUP3 RETURNDATACOPY RETURNDATASIZE SWAP1 REVERT JUMPDEST DUP6 MLOAD DUP3 AND DUP8 MSTORE DUP13 SWAP10 POP DUP11 SWAP9 POP SWAP6 DUP7 ADD SWAP6 SWAP1 SWAP5 ADD SWAP4 SWAP1 DUP4 ADD SWAP1 DUP15 PUSH2 0x1418 JUMP JUMPDEST PUSH1 0x24 DUP11 PUSH1 0x32 DUP14 PUSH4 0x4E487B71 PUSH1 0xE0 SHL DUP4 MSTORE MSTORE REVERT JUMPDEST PUSH1 0x24 DUP11 PUSH1 0x41 DUP14 PUSH4 0x4E487B71 PUSH1 0xE0 SHL DUP4 MSTORE MSTORE REVERT JUMPDEST PUSH2 0x159A SWAP1 DUP12 RETURNDATASIZE DUP14 GT PUSH2 0x653 JUMPI PUSH2 0x645 DUP2 DUP4 PUSH2 0x907 JUMP JUMPDEST POP CODESIZE PUSH2 0x137E JUMP JUMPDEST DUP11 MLOAD RETURNDATASIZE DUP11 DUP3 RETURNDATACOPY RETURNDATASIZE SWAP1 REVERT INVALID LOG2 PUSH5 0x6970667358 0x22 SLT KECCAK256 0x5E 0xCA 0x5F BALANCE SWAP7 SWAP15 REVERT ADD DUP4 EXTCODECOPY LOG2 COINBASE PUSH1 0x8 0xD4 0xE6 PUSH9 0x1FE34A47B436E6B76 0xB9 PUSH31 0x2665449764736F6C6343000813003300000000000000000000000000000000 "},"methodIdentifiers":{"executeOperation(address,uint256,uint256,address,bytes)":"1b11d0ff","i_pool()":"40f11633","i_poolAddressesProvider()":"a5fcb16a","i_sushiSwapRouter()":"227ba7ed","i_uniswapV3Router()":"911d93a8","i_weth()":"4dbe7e92","isTrainingMode()":"0138c99b","owner()":"8da5cb5b","requestFlashLoan(address,uint256,uint8,bytes,uint8,bytes,address)":"843decc8","setTrainingMode(bool)":"d4fd6d2f","withdraw(address)":"51cff8d9","withdrawETH()":"e086e5ec"}}}}}