{"contracts/test/MockUniswapV3Router.sol":{"MockUniswapV3Router":{"abi":[{"anonymous":false,"inputs":[{"indexed":false,"internalType":"address","name":"tokenIn","type":"address"},{"indexed":false,"internalType":"address","name":"tokenOut","type":"address"},{"indexed":false,"internalType":"uint24","name":"fee","type":"uint24"},{"indexed":false,"internalType":"address","name":"recipient","type":"address"},{"indexed":false,"internalType":"uint256","name":"amountIn","type":"uint256"},{"indexed":false,"internalType":"uint256","name":"amountOutMinimum","type":"uint256"},{"indexed":false,"internalType":"uint256","name":"amountOutActual","type":"uint256"}],"name":"SwappedV3","type":"event"},{"inputs":[{"components":[{"internalType":"address","name":"tokenIn","type":"address"},{"internalType":"address","name":"tokenOut","type":"address"},{"internalType":"uint24","name":"fee","type":"uint24"},{"internalType":"address","name":"recipient","type":"address"},{"internalType":"uint256","name":"deadline","type":"uint256"},{"internalType":"uint256","name":"amountIn","type":"uint256"},{"internalType":"uint256","name":"amountOutMinimum","type":"uint256"},{"internalType":"uint160","name":"sqrtPriceLimitX96","type":"uint160"}],"internalType":"struct ISwapRouter.ExactInputSingleParams","name":"params","type":"tuple"}],"name":"exactInputSingle","outputs":[{"internalType":"uint256","name":"amountOut","type":"uint256"}],"stateMutability":"nonpayable","type":"function"},{"inputs":[{"internalType":"bytes32","name":"","type":"bytes32"}],"name":"expectedAmountIn","outputs":[{"internalType":"uint256","name":"","type":"uint256"}],"stateMutability":"view","type":"function"},{"inputs":[{"internalType":"bytes32","name":"","type":"bytes32"}],"name":"expectedOutputAmounts","outputs":[{"internalType":"uint256","name":"","type":"uint256"}],"stateMutability":"view","type":"function"},{"inputs":[{"internalType":"address","name":"_tokenIn","type":"address"},{"internalType":"address","name":"_tokenOut","type":"address"},{"internalType":"uint24","name":"_fee","type":"uint24"},{"internalType":"uint256","name":"_amountIn","type":"uint256"}],"name":"setExpectedInput","outputs":[],"stateMutability":"nonpayable","type":"function"},{"inputs":[{"internalType":"address","name":"_tokenIn","type":"address"},{"internalType":"address","name":"_tokenOut","type":"address"},{"internalType":"uint24","name":"_fee","type":"uint24"},{"internalType":"uint256","name":"_amountIn","type":"uint256"},{"internalType":"uint256","name":"_expectedAmountOut","type":"uint256"}],"name":"setExpectedOutput","outputs":[],"stateMutability":"nonpayable","type":"function"},{"stateMutability":"payable","type":"receive"}],"evm":{"bytecode":{"linkReferences":{},"object":"608080604052346100165761038a908161001c8239f35b600080fdfe60806040818152600480361015610021575b505050361561001f57600080fd5b005b600092833560e01c908163235dc3ad1461024857508063414bf3891461017a5780639fde4a3514610153578063a08cb9561461008a5763a898c1ea03610011573461008657602036600319011261008657602092829135815280845220549051908152f35b8280fd5b50346100865760a0366003190112610086576100a46102f7565b6100ac61031f565b917fffffff00000000000000000000000000000000000000000000000000000000006100d6610342565b85519360208501956bffffffffffffffffffffffff19809260601b16875260601b16603485015260e81b166048830152606435604b830152604b8252608082019082821067ffffffffffffffff831117610140575083525190208252816020526084359082205580f35b856041602492634e487b7160e01b835252fd5b50346100865760203660031901126100865760209282913581526001845220549051908152f35b509190346102445761010092836003193601126100865781519384019084821067ffffffffffffffff831117610231575081526101b56102f7565b83526101bf61031f565b60208401526101cc610342565b8382015273ffffffffffffffffffffffffffffffffffffffff606435818116810361022d576060850152608435608085015260a435928360a086015260c43560c086015260e435918216820361022a575060e0602094015251908152f35b80fd5b8380fd5b836041602492634e487b7160e01b835252fd5b5080fd5b90503461022d57608036600319011261022d576102636102f7565b917fffffff000000000000000000000000000000000000000000000000000000000061028d61031f565b93610296610342565b9060208501956bffffffffffffffffffffffff19809260601b16875260601b16603485015260e81b166048830152602b8252606082019082821067ffffffffffffffff83111761014057508352519020825260016020526064359082205580f35b6004359073ffffffffffffffffffffffffffffffffffffffff8216820361031a57565b600080fd5b6024359073ffffffffffffffffffffffffffffffffffffffff8216820361031a57565b6044359062ffffff8216820361031a5756fea2646970667358221220a02f9fa654f4da5a6033c42a68774f16f61e1cf21368c65c60e6ff454cbd6a1264736f6c63430008130033","opcodes":"PUSH1 0x80 DUP1 PUSH1 0x40 MSTORE CALLVALUE PUSH2 0x16 JUMPI PUSH2 0x38A SWAP1 DUP2 PUSH2 0x1C DUP3 CODECOPY RETURN JUMPDEST PUSH1 0x0 DUP1 REVERT INVALID PUSH1 0x80 PUSH1 0x40 DUP2 DUP2 MSTORE PUSH1 0x4 DUP1 CALLDATASIZE LT ISZERO PUSH2 0x21 JUMPI JUMPDEST POP POP POP CALLDATASIZE ISZERO PUSH2 0x1F JUMPI PUSH1 0x0 DUP1 REVERT JUMPDEST STOP JUMPDEST PUSH1 0x0 SWAP3 DUP4 CALLDATALOAD PUSH1 0xE0 SHR SWAP1 DUP2 PUSH4 0x235DC3AD EQ PUSH2 0x248 JUMPI POP DUP1 PUSH4 0x414BF389 EQ PUSH2 0x17A JUMPI DUP1 PUSH4 0x9FDE4A35 EQ PUSH2 0x153 JUMPI DUP1 PUSH4 0xA08CB956 EQ PUSH2 0x8A JUMPI PUSH4 0xA898C1EA SUB PUSH2 0x11 JUMPI CALLVALUE PUSH2 0x86 JUMPI PUSH1 0x20 CALLDATASIZE PUSH1 0x3 NOT ADD SLT PUSH2 0x86 JUMPI PUSH1 0x20 SWAP3 DUP3 SWAP2 CALLDATALOAD DUP2 MSTORE DUP1 DUP5 MSTORE KECCAK256 SLOAD SWAP1 MLOAD SWAP1 DUP2 MSTORE RETURN JUMPDEST DUP3 DUP1 REVERT JUMPDEST POP CALLVALUE PUSH2 0x86 JUMPI PUSH1 0xA0 CALLDATASIZE PUSH1 0x3 NOT ADD SLT PUSH2 0x86 JUMPI PUSH2 0xA4 PUSH2 0x2F7 JUMP JUMPDEST PUSH2 0xAC PUSH2 0x31F JUMP JUMPDEST SWAP2 PUSH32 0xFFFFFF0000000000000000000000000000000000000000000000000000000000 PUSH2 0xD6 PUSH2 0x342 JUMP JUMPDEST DUP6 MLOAD SWAP4 PUSH1 0x20 DUP6 ADD SWAP6 PUSH12 0xFFFFFFFFFFFFFFFFFFFFFFFF NOT DUP1 SWAP3 PUSH1 0x60 SHL AND DUP8 MSTORE PUSH1 0x60 SHL AND PUSH1 0x34 DUP6 ADD MSTORE PUSH1 0xE8 SHL AND PUSH1 0x48 DUP4 ADD MSTORE PUSH1 0x64 CALLDATALOAD PUSH1 0x4B DUP4 ADD MSTORE PUSH1 0x4B DUP3 MSTORE PUSH1 0x80 DUP3 ADD SWAP1 DUP3 DUP3 LT PUSH8 0xFFFFFFFFFFFFFFFF DUP4 GT OR PUSH2 0x140 JUMPI POP DUP4 MSTORE MLOAD SWAP1 KECCAK256 DUP3 MSTORE DUP2 PUSH1 0x20 MSTORE PUSH1 0x84 CALLDATALOAD SWAP1 DUP3 KECCAK256 SSTORE DUP1 RETURN JUMPDEST DUP6 PUSH1 0x41 PUSH1 0x24 SWAP3 PUSH4 0x4E487B71 PUSH1 0xE0 SHL DUP4 MSTORE MSTORE REVERT JUMPDEST POP CALLVALUE PUSH2 0x86 JUMPI PUSH1 0x20 CALLDATASIZE PUSH1 0x3 NOT ADD SLT PUSH2 0x86 JUMPI PUSH1 0x20 SWAP3 DUP3 SWAP2 CALLDATALOAD DUP2 MSTORE PUSH1 0x1 DUP5 MSTORE KECCAK256 SLOAD SWAP1 MLOAD SWAP1 DUP2 MSTORE RETURN JUMPDEST POP SWAP2 SWAP1 CALLVALUE PUSH2 0x244 JUMPI PUSH2 0x100 SWAP3 DUP4 PUSH1 0x3 NOT CALLDATASIZE ADD SLT PUSH2 0x86 JUMPI DUP2 MLOAD SWAP4 DUP5 ADD SWAP1 DUP5 DUP3 LT PUSH8 0xFFFFFFFFFFFFFFFF DUP4 GT OR PUSH2 0x231 JUMPI POP DUP2 MSTORE PUSH2 0x1B5 PUSH2 0x2F7 JUMP JUMPDEST DUP4 MSTORE PUSH2 0x1BF PUSH2 0x31F JUMP JUMPDEST PUSH1 0x20 DUP5 ADD MSTORE PUSH2 0x1CC PUSH2 0x342 JUMP JUMPDEST DUP4 DUP3 ADD MSTORE PUSH20 0xFFFFFFFFFFFFFFFFFFFFFFFFFFFFFFFFFFFFFFFF PUSH1 0x64 CALLDATALOAD DUP2 DUP2 AND DUP2 SUB PUSH2 0x22D JUMPI PUSH1 0x60 DUP6 ADD MSTORE PUSH1 0x84 CALLDATALOAD PUSH1 0x80 DUP6 ADD MSTORE PUSH1 0xA4 CALLDATALOAD SWAP3 DUP4 PUSH1 0xA0 DUP7 ADD MSTORE PUSH1 0xC4 CALLDATALOAD PUSH1 0xC0 DUP7 ADD MSTORE PUSH1 0xE4 CALLDATALOAD SWAP2 DUP3 AND DUP3 SUB PUSH2 0x22A JUMPI POP PUSH1 0xE0 PUSH1 0x20 SWAP5 ADD MSTORE MLOAD SWAP1 DUP2 MSTORE RETURN JUMPDEST DUP1 REVERT JUMPDEST DUP4 DUP1 REVERT JUMPDEST DUP4 PUSH1 0x41 PUSH1 0x24 SWAP3 PUSH4 0x4E487B71 PUSH1 0xE0 SHL DUP4 MSTORE MSTORE REVERT JUMPDEST POP DUP1 REVERT JUMPDEST SWAP1 POP CALLVALUE PUSH2 0x22D JUMPI PUSH1 0x80 CALLDATASIZE PUSH1 0x3 NOT ADD SLT PUSH2 0x22D JUMPI PUSH2 0x263 PUSH2 0x2F7 JUMP JUMPDEST SWAP2 PUSH32 0xFFFFFF0000000000000000000000000000000000000000000000000000000000 PUSH2 0x28D PUSH2 0x31F JUMP JUMPDEST SWAP4 PUSH2 0x296 PUSH2 0x342 JUMP JUMPDEST SWAP1 PUSH1 0x20 DUP6 ADD SWAP6 PUSH12 0xFFFFFFFFFFFFFFFFFFFFFFFF NOT DUP1 SWAP3 PUSH1 0x60 SHL AND DUP8 MSTORE PUSH1 0x60 SHL AND PUSH1 0x34 DUP6 ADD MSTORE PUSH1 0xE8 SHL AND PUSH1 0x48 DUP4 ADD MSTORE PUSH1 0x2B DUP3 MSTORE PUSH1 0x60 DUP3 ADD SWAP1 DUP3 DUP3 LT PUSH8 0xFFFFFFFFFFFFFFFF DUP4 GT OR PUSH2 0x140 JUMPI POP DUP4 MSTORE MLOAD SWAP1 KECCAK256 DUP3 MSTORE PUSH1 0x1 PUSH1 0x20 MSTORE PUSH1 0x64 CALLDATALOAD SWAP1 DUP3 KECCAK256 SSTORE DUP1 RETURN JUMPDEST PUSH1 0x4 CALLDATALOAD SWAP1 PUSH20 0xFFFFFFFFFFFFFFFFFFFFFFFFFFFFFFFFFFFFFFFF DUP3 AND DUP3 SUB PUSH2 0x31A JUMPI JUMP JUMPDEST PUSH1 0x0 DUP1 REVERT JUMPDEST PUSH1 0x24 CALLDATALOAD SWAP1 PUSH20 0xFFFFFFFFFFFFFFFFFFFFFFFFFFFFFFFFFFFFFFFF DUP3 AND DUP3 SUB PUSH2 0x31A JUMPI JUMP JUMPDEST PUSH1 0x44 CALLDATALOAD SWAP1 PUSH3 0xFFFFFF DUP3 AND DUP3 SUB PUSH2 0x31A JUMPI JUMP INVALID LOG2 PUSH5 0x6970667358 0x22 SLT KECCAK256 LOG0 0x2F SWAP16 0xA6 SLOAD DELEGATECALL 0xDA GAS PUSH1 0x33 0xC4 0x2A PUSH9 0x774F16F61E1CF21368 0xC6 0x5C PUSH1 0xE6 SELFDESTRUCT GASLIMIT 0x4C 0xBD PUSH11 0x1264736F6C634300081300 CALLER "},"methodIdentifiers":{"exactInputSingle((address,address,uint24,address,uint256,uint256,uint256,uint160))":"414bf389","expectedAmountIn(bytes32)":"9fde4a35","expectedOutputAmounts(bytes32)":"a898c1ea","setExpectedInput(address,address,uint24,uint256)":"235dc3ad","setExpectedOutput(address,address,uint24,uint256,uint256)":"a08cb956"}}}}}