{"contracts/test/MockAavePool.sol":{"MockAavePool":{"abi":[{"inputs":[],"stateMutability":"nonpayable","type":"constructor"},{"anonymous":false,"inputs":[{"indexed":false,"internalType":"address","name":"receiverAddress","type":"address"},{"indexed":false,"internalType":"address","name":"asset","type":"address"},{"indexed":false,"internalType":"uint256","name":"amount","type":"uint256"},{"indexed":false,"internalType":"bytes","name":"params","type":"bytes"},{"indexed":false,"internalType":"uint16","name":"referralCode","type":"uint16"}],"name":"FlashLoanSimpleCalled","type":"event"},{"anonymous":false,"inputs":[{"indexed":true,"internalType":"address","name":"asset","type":"address"},{"indexed":false,"internalType":"uint256","name":"amount","type":"uint256"},{"indexed":false,"internalType":"uint256","name":"premium","type":"uint256"}],"name":"Repayment","type":"event"},{"inputs":[],"name":"PREMIUM_BASIS_POINTS","outputs":[{"internalType":"uint256","name":"","type":"uint256"}],"stateMutability":"view","type":"function"},{"inputs":[{"internalType":"address","name":"","type":"address"}],"name":"assetBalances","outputs":[{"internalType":"uint256","name":"","type":"uint256"}],"stateMutability":"view","type":"function"},{"inputs":[],"name":"currentFlashLoanPremium","outputs":[{"internalType":"uint256","name":"","type":"uint256"}],"stateMutability":"view","type":"function"},{"inputs":[{"internalType":"address","name":"receiverAddress","type":"address"},{"internalType":"address","name":"asset","type":"address"},{"internalType":"uint256","name":"amount","type":"uint256"},{"internalType":"bytes","name":"params","type":"bytes"},{"internalType":"uint16","name":"referralCode","type":"uint16"}],"name":"flashLoanSimple","outputs":[],"stateMutability":"nonpayable","type":"function"},{"inputs":[{"internalType":"address","name":"_asset","type":"address"},{"internalType":"uint256","name":"_amount","type":"uint256"}],"name":"fundPool","outputs":[],"stateMutability":"nonpayable","type":"function"},{"inputs":[],"name":"owner","outputs":[{"internalType":"address","name":"","type":"address"}],"stateMutability":"view","type":"function"},{"inputs":[{"internalType":"uint256","name":"_premium","type":"uint256"}],"name":"setFlashLoanPremium","outputs":[],"stateMutability":"nonpayable","type":"function"}],"evm":{"bytecode":{"linkReferences":{},"object":"6080806040523461002d576005600155600080546001600160a01b0319163317905561052390816100338239f35b600080fdfe608060408181526004918236101561001657600080fd5b600092833560e01c9182631da9e7bb146103bb575081632bfd5146146102f157816342b0b77c1461010a575080634f6c54b2146100ec5780636d998f17146100d0578063867c12471461009a57638da5cb5b1461007257600080fd5b346100965781600319360112610096576001600160a01b0360209254169051908152f35b5080fd5b503461009657602036600319011261009657806020926001600160a01b036100c0610442565b1681526002845220549051908152f35b5034610096578160031936011261009657602090516127108152f35b50346100965781600319360112610096576020906001549051908152f35b9050346102d35760a03660031901126102d357610125610442565b91602480356001600160a01b03908181168091036102ed576044359460643567ffffffffffffffff978882116102e957366023830112156102e957818301359889116102d7578987519260209a6101858c601f19601f840116018661045d565b808552368982840101116102d35780898d930183870137840101526084359461ffff86168096036102cf577fd9ff9d2d206cf36c71b0d1062e183f788dfaa22c3fafdc4d2a1303bd83f1d7a99188519182911696878252868c8301528a8a83015260a060608301526101fa60a08301866104ad565b9060808301520390a16001548088029088820414881517156102bd57916102738a926127108b989796958a519b8c998a9889977f1b11d0ff00000000000000000000000000000000000000000000000000000000895288015286015204604484015233606484015260a0608484015260a48301906104ad565b03925af19081156102b45750610287578280f35b816102a692903d106102ad575b61029e818361045d565b810190610495565b5038808280f35b503d610294565b513d85823e3d90fd5b858a601185634e487b7160e01b835252fd5b8a80fd5b8280fd5b858a604185634e487b7160e01b835252fd5b8980fd5b8680fd5b9050346102d357816003193601126102d35761030b610442565b916001600160a01b03602435931681517f23b872dd000000000000000000000000000000000000000000000000000000008152338482015230602482015284604482015260208160648189865af180156103b157610393575b5084526002602052832090815492830180931161038057505580f35b836011602492634e487b7160e01b835252fd5b6103aa9060203d81116102ad5761029e818361045d565b5038610364565b83513d88823e3d90fd5b849250346102d35760203660031901126102d3576001600160a01b0383541633036103e857503560015580f35b60206064927f08c379a0000000000000000000000000000000000000000000000000000000008352820152600960248201527f4e6f74206f776e657200000000000000000000000000000000000000000000006044820152fd5b600435906001600160a01b038216820361045857565b600080fd5b90601f8019910116810190811067ffffffffffffffff82111761047f57604052565b634e487b7160e01b600052604160045260246000fd5b90816020910312610458575180151581036104585790565b919082519283825260005b8481106104d9575050826000602080949584010152601f8019910116010190565b6020818301810151848301820152016104b856fea26469706673582212205ecb0cf04b739a74d72068ad38735c23cdd0bcbdcb75842426dd24a317f56ef664736f6c63430008130033","opcodes":"PUSH1 0x80 DUP1 PUSH1 0x40 MSTORE CALLVALUE PUSH2 0x2D JUMPI PUSH1 0x5 PUSH1 0x1 SSTORE PUSH1 0x0 DUP1 SLOAD PUSH1 0x1 PUSH1 0x1 PUSH1 0xA0 SHL SUB NOT AND CALLER OR SWAP1 SSTORE PUSH2 0x523 SWAP1 DUP2 PUSH2 0x33 DUP3 CODECOPY RETURN JUMPDEST PUSH1 0x0 DUP1 REVERT INVALID PUSH1 0x80 PUSH1 0x40 DUP2 DUP2 MSTORE PUSH1 0x4 SWAP2 DUP3 CALLDATASIZE LT ISZERO PUSH2 0x16 JUMPI PUSH1 0x0 DUP1 REVERT JUMPDEST PUSH1 0x0 SWAP3 DUP4 CALLDATALOAD PUSH1 0xE0 SHR SWAP2 DUP3 PUSH4 0x1DA9E7BB EQ PUSH2 0x3BB JUMPI POP DUP2 PUSH4 0x2BFD5146 EQ PUSH2 0x2F1 JUMPI DUP2 PUSH4 0x42B0B77C EQ PUSH2 0x10A JUMPI POP DUP1 PUSH4 0x4F6C54B2 EQ PUSH2 0xEC JUMPI DUP1 PUSH4 0x6D998F17 EQ PUSH2 0xD0 JUMPI DUP1 PUSH4 0x867C1247 EQ PUSH2 0x9A JUMPI PUSH4 0x8DA5CB5B EQ PUSH2 0x72 JUMPI PUSH1 0x0 DUP1 REVERT JUMPDEST CALLVALUE PUSH2 0x96 JUMPI DUP2 PUSH1 0x3 NOT CALLDATASIZE ADD SLT PUSH2 0x96 JUMPI PUSH1 0x1 PUSH1 0x1 PUSH1 0xA0 SHL SUB PUSH1 0x20 SWAP3 SLOAD AND SWAP1 MLOAD SWAP1 DUP2 MSTORE RETURN JUMPDEST POP DUP1 REVERT JUMPDEST POP CALLVALUE PUSH2 0x96 JUMPI PUSH1 0x20 CALLDATASIZE PUSH1 0x3 NOT ADD SLT PUSH2 0x96 JUMPI DUP1 PUSH1 0x20 SWAP3 PUSH1 0x1 PUSH1 0x1 PUSH1 0xA0 SHL SUB PUSH2 0xC0 PUSH2 0x442 JUMP JUMPDEST AND DUP2 MSTORE PUSH1 0x2 DUP5 MSTORE KECCAK256 SLOAD SWAP1 MLOAD SWAP1 DUP2 MSTORE RETURN JUMPDEST POP CALLVALUE PUSH2 0x96 JUMPI DUP2 PUSH1 0x3 NOT CALLDATASIZE ADD SLT PUSH2 0x96 JUMPI PUSH1 0x20 SWAP1 MLOAD PUSH2 0x2710 DUP2 MSTORE RETURN JUMPDEST POP CALLVALUE PUSH2 0x96 JUMPI DUP2 PUSH1 0x3 NOT CALLDATASIZE ADD SLT PUSH2 0x96 JUMPI PUSH1 0x20 SWAP1 PUSH1 0x1 SLOAD SWAP1 MLOAD SWAP1 DUP2 MSTORE RETURN JUMPDEST SWAP1 POP CALLVALUE PUSH2 0x2D3 JUMPI PUSH1 0xA0 CALLDATASIZE PUSH1 0x3 NOT ADD SLT PUSH2 0x2D3 JUMPI PUSH2 0x125 PUSH2 0x442 JUMP JUMPDEST SWAP2 PUSH1 0x24 DUP1 CALLDATALOAD PUSH1 0x1 PUSH1 0x1 PUSH1 0xA0 SHL SUB SWAP1 DUP2 DUP2 AND DUP1 SWAP2 SUB PUSH2 0x2ED JUMPI PUSH1 0x44 CALLDATALOAD SWAP5 PUSH1 0x64 CALLDATALOAD PUSH8 0xFFFFFFFFFFFFFFFF SWAP8 DUP9 DUP3 GT PUSH2 0x2E9 JUMPI CALLDATASIZE PUSH1 0x23 DUP4 ADD SLT ISZERO PUSH2 0x2E9 JUMPI DUP2 DUP4 ADD CALLDATALOAD SWAP9 DUP10 GT PUSH2 0x2D7 JUMPI DUP10 DUP8 MLOAD SWAP3 PUSH1 0x20 SWAP11 PUSH2 0x185 DUP13 PUSH1 0x1F NOT PUSH1 0x1F DUP5 ADD AND ADD DUP7 PUSH2 0x45D JUMP JUMPDEST DUP1 DUP6 MSTORE CALLDATASIZE DUP10 DUP3 DUP5 ADD ADD GT PUSH2 0x2D3 JUMPI DUP1 DUP10 DUP14 SWAP4 ADD DUP4 DUP8 ADD CALLDATACOPY DUP5 ADD ADD MSTORE PUSH1 0x84 CALLDATALOAD SWAP5 PUSH2 0xFFFF DUP7 AND DUP1 SWAP7 SUB PUSH2 0x2CF JUMPI PUSH32 0xD9FF9D2D206CF36C71B0D1062E183F788DFAA22C3FAFDC4D2A1303BD83F1D7A9 SWAP2 DUP9 MLOAD SWAP2 DUP3 SWAP2 AND SWAP7 DUP8 DUP3 MSTORE DUP7 DUP13 DUP4 ADD MSTORE DUP11 DUP11 DUP4 ADD MSTORE PUSH1 0xA0 PUSH1 0x60 DUP4 ADD MSTORE PUSH2 0x1FA PUSH1 0xA0 DUP4 ADD DUP7 PUSH2 0x4AD JUMP JUMPDEST SWAP1 PUSH1 0x80 DUP4 ADD MSTORE SUB SWAP1 LOG1 PUSH1 0x1 SLOAD DUP1 DUP9 MUL SWAP1 DUP9 DUP3 DIV EQ DUP9 ISZERO OR ISZERO PUSH2 0x2BD JUMPI SWAP2 PUSH2 0x273 DUP11 SWAP3 PUSH2 0x2710 DUP12 SWAP9 SWAP8 SWAP7 SWAP6 DUP11 MLOAD SWAP12 DUP13 SWAP10 DUP11 SWAP9 DUP10 SWAP8 PUSH32 0x1B11D0FF00000000000000000000000000000000000000000000000000000000 DUP10 MSTORE DUP9 ADD MSTORE DUP7 ADD MSTORE DIV PUSH1 0x44 DUP5 ADD MSTORE CALLER PUSH1 0x64 DUP5 ADD MSTORE PUSH1 0xA0 PUSH1 0x84 DUP5 ADD MSTORE PUSH1 0xA4 DUP4 ADD SWAP1 PUSH2 0x4AD JUMP JUMPDEST SUB SWAP3 GAS CALL SWAP1 DUP2 ISZERO PUSH2 0x2B4 JUMPI POP PUSH2 0x287 JUMPI DUP3 DUP1 RETURN JUMPDEST DUP2 PUSH2 0x2A6 SWAP3 SWAP1 RETURNDATASIZE LT PUSH2 0x2AD JUMPI JUMPDEST PUSH2 0x29E DUP2 DUP4 PUSH2 0x45D JUMP JUMPDEST DUP2 ADD SWAP1 PUSH2 0x495 JUMP JUMPDEST POP CODESIZE DUP1 DUP3 DUP1 RETURN JUMPDEST POP RETURNDATASIZE PUSH2 0x294 JUMP JUMPDEST MLOAD RETURNDATASIZE DUP6 DUP3 RETURNDATACOPY RETURNDATASIZE SWAP1 REVERT JUMPDEST DUP6 DUP11 PUSH1 0x11 DUP6 PUSH4 0x4E487B71 PUSH1 0xE0 SHL DUP4 MSTORE MSTORE REVERT JUMPDEST DUP11 DUP1 REVERT JUMPDEST DUP3 DUP1 REVERT JUMPDEST DUP6 DUP11 PUSH1 0x41 DUP6 PUSH4 0x4E487B71 PUSH1 0xE0 SHL DUP4 MSTORE MSTORE REVERT JUMPDEST DUP10 DUP1 REVERT JUMPDEST DUP7 DUP1 REVERT JUMPDEST SWAP1 POP CALLVALUE PUSH2 0x2D3 JUMPI DUP2 PUSH1 0x3 NOT CALLDATASIZE ADD SLT PUSH2 0x2D3 JUMPI PUSH2 0x30B PUSH2 0x442 JUMP JUMPDEST SWAP2 PUSH1 0x1 PUSH1 0x1 PUSH1 0xA0 SHL SUB PUSH1 0x24 CALLDATALOAD SWAP4 AND DUP2 MLOAD PUSH32 0x23B872DD00000000000000000000000000000000000000000000000000000000 DUP2 MSTORE CALLER DUP5 DUP3 ADD MSTORE ADDRESS PUSH1 0x24 DUP3 ADD MSTORE DUP5 PUSH1 0x44 DUP3 ADD MSTORE PUSH1 0x20 DUP2 PUSH1 0x64 DUP2 DUP10 DUP7 GAS CALL DUP1 ISZERO PUSH2 0x3B1 JUMPI PUSH2 0x393 JUMPI JUMPDEST POP DUP5 MSTORE PUSH1 0x2 PUSH1 0x20 MSTORE DUP4 KECCAK256 SWAP1 DUP2 SLOAD SWAP3 DUP4 ADD DUP1 SWAP4 GT PUSH2 0x380 JUMPI POP SSTORE DUP1 RETURN JUMPDEST DUP4 PUSH1 0x11 PUSH1 0x24 SWAP3 PUSH4 0x4E487B71 PUSH1 0xE0 SHL DUP4 MSTORE MSTORE REVERT JUMPDEST PUSH2 0x3AA SWAP1 PUSH1 0x20 RETURNDATASIZE DUP2 GT PUSH2 0x2AD JUMPI PUSH2 0x29E DUP2 DUP4 PUSH2 0x45D JUMP JUMPDEST POP CODESIZE PUSH2 0x364 JUMP JUMPDEST DUP4 MLOAD RETURNDATASIZE DUP9 DUP3 RETURNDATACOPY RETURNDATASIZE SWAP1 REVERT JUMPDEST DUP5 SWAP3 POP CALLVALUE PUSH2 0x2D3 JUMPI PUSH1 0x20 CALLDATASIZE PUSH1 0x3 NOT ADD SLT PUSH2 0x2D3 JUMPI PUSH1 0x1 PUSH1 0x1 PUSH1 0xA0 SHL SUB DUP4 SLOAD AND CALLER SUB PUSH2 0x3E8 JUMPI POP CALLDATALOAD PUSH1 0x1 SSTORE DUP1 RETURN JUMPDEST PUSH1 0x20 PUSH1 0x64 SWAP3 PUSH32 0x8C379A000000000000000000000000000000000000000000000000000000000 DUP4 MSTORE DUP3 ADD MSTORE PUSH1 0x9 PUSH1 0x24 DUP3 ADD MSTORE PUSH32 0x4E6F74206F776E65720000000000000000000000000000000000000000000000 PUSH1 0x44 DUP3 ADD MSTORE REVERT JUMPDEST PUSH1 0x4 CALLDATALOAD SWAP1 PUSH1 0x1 PUSH1 0x1 PUSH1 0xA0 SHL SUB DUP3 AND DUP3 SUB PUSH2 0x458 JUMPI JUMP JUMPDEST PUSH1 0x0 DUP1 REVERT JUMPDEST SWAP1 PUSH1 0x1F DUP1 NOT SWAP2 ADD AND DUP2 ADD SWAP1 DUP2 LT PUSH8 0xFFFFFFFFFFFFFFFF DUP3 GT OR PUSH2 0x47F JUMPI PUSH1 0x40 MSTORE JUMP JUMPDEST PUSH4 0x4E487B71 PUSH1 0xE0 SHL PUSH1 0x0 MSTORE PUSH1 0x41 PUSH1 0x4 MSTORE PUSH1 0x24 PUSH1 0x0 REVERT JUMPDEST SWAP1 DUP2 PUSH1 0x20 SWAP2 SUB SLT PUSH2 0x458 JUMPI MLOAD DUP1 ISZERO ISZERO DUP2 SUB PUSH2 0x458 JUMPI SWAP1 JUMP JUMPDEST SWAP2 SWAP1 DUP3 MLOAD SWAP3 DUP4 DUP3 MSTORE PUSH1 0x0 JUMPDEST DUP5 DUP2 LT PUSH2 0x4D9 JUMPI POP POP DUP3 PUSH1 0x0 PUSH1 0x20 DUP1 SWAP5 SWAP6 DUP5 ADD ADD MSTORE PUSH1 0x1F DUP1 NOT SWAP2 ADD AND ADD ADD SWAP1 JUMP JUMPDEST PUSH1 0x20 DUP2 DUP4 ADD DUP2 ADD MLOAD DUP5 DUP4 ADD DUP3 ADD MSTORE ADD PUSH2 0x4B8 JUMP INVALID LOG2 PUSH5 0x6970667358 0x22 SLT KECCAK256 0x5E 0xCB 0xC CREATE 0x4B PUSH20 0x9A74D72068AD38735C23CDD0BCBDCB75842426DD 0x24 LOG3 OR CREATE2 PUSH15 0xF664736F6C63430008130033000000 "},"methodIdentifiers":{"PREMIUM_BASIS_POINTS()":"6d998f17","assetBalances(address)":"867c1247","currentFlashLoanPremium()":"4f6c54b2","flashLoanSimple(address,address,uint256,bytes,uint16)":"42b0b77c","fundPool(address,uint256)":"2bfd5146","owner()":"8da5cb5b","setFlashLoanPremium(uint256)":"1da9e7bb"}}}}}